:020000040800F2
:1000000000280020990C00083D0C0008430C000853
:10001000490C00084F0C0008550C000800000000B7
:100020000000000000000000000000005B0C000861
:10003000670C000800000000730C00087F0C00082B
:10004000E10C0008E10C0008E10C0008E10C0008DC
:10005000E10C0008E10C0008E10C0008E10C0008CC
:10006000E10C0008E10C0008E10C0008E10C0008BC
:10007000E10C0008E10C0008E10C0008E10C0008AC
:10008000E10C0008E10C0008E10C0008E10C00089C
:10009000E10C0008E10C0008E10C0008E10C00088C
:1000A000E10C0008E10C0008E10C0008E10C00087C
:1000B000E10C0008E10C000800000000E10C000861
:1000C000E10C00080000000000000000E10C000846
:1000D00000000000E10C0008E10C00080000000036
:1000E000E10C0008E10C0008E10C00080000000031
:1000F0000000000000000000000000000000000000
:0C01000000000000000000005FF808F1A3
:10010C0010B5054C237833B9044B13B10448AFF345
:10011C0000800123237010BD0C00002000000000A3
:10012C00081B000808B5034B1BB103490348AFF388
:10013C00008008BD0000000010000020081B000813
:10014C0080B582B000AF7860C7F800C07B68002B28
:10015C002AD100224FF40071CB4801F0A3F8002201
:10016C004FF48061C84801F09DF800224FF4006103
:10017C00C54801F097F800224FF48051C24801F0B5
:10018C0091F800224FF40051BF4801F08BF8002287
:10019C004FF48041BC4801F085F801224FF4004136
:1001AC00B94801F07FF8C9E17B68012B2AD1012203
:1001BC004FF40071B44801F075F800224FF48061DF
:1001CC00B14801F06FF800224FF40061AE4801F025
:1001DC0069F801224FF48051AB4801F063F8012219
:1001EC004FF40051A84801F05DF801224FF4804112
:1001FC00A54801F057F801224FF40041A24801F044
:10020C0051F89BE17B68022B2AD100224FF400713C
:10021C009D4801F047F800224FF480619A4801F0A4
:10022C0041F801224FF40061974801F03BF800229D
:10023C004FF48051944801F035F800224FF40051EE
:10024C00914801F02FF801224FF480418E4801F0C3
:10025C0029F800224FF400418B4801F023F86DE19E
:10026C007B68032B2AD100224FF40071864801F0E1
:10027C0019F800224FF48061834801F013F8002232
:10028C004FF40061804801F00DF800224FF48051CA
:10029C007D4801F007F801224FF400517A4801F033
:1002AC0001F801224FF48041774800F0FBFF002257
:1002BC004FF40041744800F0F5FF3FE17B68042BDC
:1002CC002AD101224FF400716F4800F0EBFF00229D
:1002DC004FF480616C4800F0E5FF00224FF40061A0
:1002EC00694800F0DFFF01224FF48051664800F0AE
:1002FC00D9FF01224FF40051634800F0D3FF0022D4
:10030C004FF48041604800F0CDFF00224FF40041D3
:10031C005D4800F0C7FF11E17B68052B2AD1002254
:10032C004FF40071584800F0BDFF01224FF480617A
:10033C00554800F0B7FF00224FF40061524800F01E
:10034C00B1FF00224FF480514F4800F0ABFF012267
:10035C004FF400514C4800F0A5FF00224FF48041AF
:10036C00494800F09FFF00224FF40041464800F03E
:10037C0099FFE3E07B68062B2AD100224FF4007131
:10038C00414800F08FFF01224FF480613E4800F09D
:10039C0089FF00224FF400613B4800F083FF0022EC
:1003AC004FF48051384800F07DFF00224FF400518B
:1003BC00354800F077FF00224FF48041324800F0BE
:1003CC0071FF00224FF400412F4800F06BFFB5E0A5
:1003DC007B68072B2AD100224FF400712A4800F0C9
:1003EC0061FF00224FF48061274800F05BFF002280
:1003FC004FF40061244800F055FF01224FF4805166
:10040C00214800F04FFF01224FF400511E4800F02C
:10041C0049FF01224FF480411B4800F043FF0122A9
:10042C004FF40041184800F03DFF87E07B68082B33
:10043C002CD100224FF40071134800F033FF00223E
:10044C004FF48061104800F02DFF00224FF4006142
:10045C000D4800F027FF00224FF480510A4800F0AD
:10046C0021FF00224FF40051074800F01BFF00222F
:10047C004FF48041044800F015FF00224FF4004176
:10048C00014800F00FFF59E0000801407B68092B80
:10049C002AD100224FF400712A4800F003FF0022F9
:1004AC004FF48061274800F0FDFE00224FF40061FC
:1004BC00244800F0F7FE00224FF48051214800F050
:1004CC00F1FE01224FF400511E4800F0EBFE002219
:1004DC004FF480411B4800F0E5FE00224FF4004130
:1004EC00184800F0DFFE29E001224FF40071154896
:1004FC0000F0D8FE01224FF48061124800F0D2FEC9
:10050C0001224FF400610F4800F0CCFE01224FF4A1
:10051C0080510C4800F0C6FE01224FF400510948EE
:10052C0000F0C0FE01224FF48041064800F0BAFEF4
:10053C0001224FF40041034800F0B4FE00BF08371D
:10054C00BD4680BD0008014080B582B000AF07F108
:10055C0010033B6000F0C0FB00F0B0FA00F0EAFAC8
:10056C0001224021514800F09DFE012280214F487C
:10057C0000F098FE01224FF480714C4800F092FE7E
:10058C00012240214A4800F08DFE0122802148487A
:10059C0000F088FE01224FF48071454800F082FE85
:1005AC0009237B607CE07B68042B11DD0122802118
:1005BC003E4800F077FE002240213C4800F072FEDD
:1005CC007B68053B3A4694461846FFF7B9FD25E093
:1005DC007B68012B12DD01224021344800F062FEC1
:1005EC0000224FF48071314800F05CFE7B68023BC6
:1005FC003A4694461846FFF7A3FD0FE001224FF44C
:10060C0080712A4800F04EFE00228021274800F01D
:10061C0049FE3B469C467868FFF792FD7B68062BAB
:10062C0012DD01224021224800F03CFE00224FF452
:10063C0080711F4800F036FE7B68073B3A469446B3
:10064C00184600F037F824E07B68042B12DD0122F9
:10065C004FF48071164800F025FE002280211448CA
:10066C0000F020FE7B68053B3A469446184600F0A5
:10067C0021F80EE0012280210D4800F013FE00222B
:10068C0040210B4800F00EFE3B469C46786800F07B
:10069C0011F84FF47A7000F081FB7B68013B7B60B2
:1006AC007B68002BBFF67FAF7AE700BF00080140E4
:1006BC00000C014080B582B000AF7860C7F800C074
:1006CC007B68002B2AD100224FF40071CB4800F03C
:1006DC00E9FD00224FF48061C84800F0E3FD0022E0
:1006EC004FF40061C54800F0DDFD00224FF480514D
:1006FC00C24800F0D7FD00224FF40051BF4800F073
:10070C00D1FD00224FF48041BC4800F0CBFD01220A
:10071C004FF40041B94800F0C5FDC9E17B68012BDD
:10072C002AD101224FF40071B44800F0BBFD002225
:10073C004FF48061B14800F0B5FD00224FF4006128
:10074C00AE4800F0AFFD01224FF48051AB4800F0F1
:10075C00A9FD01224FF40051A84800F0A3FD01228D
:10076C004FF48041A54800F09DFD01224FF400415B
:10077C00A24800F097FD9BE17B68022B2AD1002256
:10078C004FF400719D4800F08DFD00224FF4806104
:10079C009A4800F087FD01224FF40061974800F061
:1007AC0081FD00224FF48051944800F07BFD002223
:1007BC004FF40051914800F075FD01224FF4804137
:1007CC008E4800F06FFD00224FF400418B4800F082
:1007DC0069FD6DE17B68032B2AD100224FF4007177
:1007EC00864800F05FFD00224FF48061834800F0E2
:1007FC0059FD00224FF40061804800F053FD0022A7
:10080C004FF480517D4800F04DFD01224FF4005112
:10081C007A4800F047FD01224FF48041774800F000
:10082C0041FD00224FF40041744800F03BFD3FE1D4
:10083C007B68042B2AD101224FF400716F4800F021
:10084C0031FD00224FF480616C4800F02BFD00223A
:10085C004FF40061694800F025FD01224FF48051EE
:10086C00664800F01FFD01224FF40051634800F070
:10087C0019FD00224FF48041604800F013FD002266
:10088C004FF400415D4800F00DFD11E17B68052B34
:10089C002AD100224FF40071584800F003FD0122C8
:1008AC004FF48061554800F0FDFC00224FF40061CC
:1008BC00524800F0F7FC00224FF480514F4800F0F2
:1008CC00F1FC01224FF400514C4800F0EBFC0022EB
:1008DC004FF48041494800F0E5FC00224FF4004100
:1008EC00464800F0DFFCE3E07B68062B2AD10022AF
:1008FC004FF40071414800F0D5FC01224FF48061A7
:10090C003E4800F0CFFC00224FF400613B4800F061
:10091C00C9FC00224FF48051384800F0C3FC00227F
:10092C004FF40051354800F0BDFC00224FF48041DB
:10093C00324800F0B7FC00224FF400412F4800F081
:10094C00B1FCB5E07B68072B2AD100224FF4007173
:10095C002A4800F0A7FC00224FF48061274800F0E1
:10096C00A1FC00224FF40061244800F09BFC012202
:10097C004FF48051214800F095FC01224FF40051B6
:10098C001E4800F08FFC01224FF480411B4800F000
:10099C0089FC01224FF40041184800F083FC87E0E9
:1009AC007B68082B2CD100224FF40071134800F007
:1009BC0079FC00224FF48061104800F073FC002297
:1009CC004FF400610D4800F06DFC00224FF4805193
:1009DC000A4800F067FC00224FF40051074800F071
:1009EC0061FC00224FF48041044800F05BFC0022C3
:1009FC004FF40041014800F055FC59E0000C014057
:100A0C007B68092B2AD100224FF400712A4800F090
:100A1C0049FC00224FF48061274800F043FC00227F
:100A2C004FF40061244800F03DFC00224FF480514B
:100A3C00214800F037FC01224FF400511E4800F011
:100A4C0031FC00224FF480411B4800F02BFC0022AB
:100A5C004FF40041184800F025FC29E001224FF426
:100A6C000071154800F01EFC01224FF48061124801
:100A7C0000F018FC01224FF400610F4800F012FC4A
:100A8C0001224FF480510C4800F00CFC01224FF471
:100A9C000051094800F006FC01224FF48041064841
:100AAC0000F000FC01224FF40041034800F0FAFB77
:100ABC0000BF0837BD4680BD000C014080B590B02A
:100ACC0000AF07F1180328220021184600F0EAFFB6
:100ADC003B1D00221A605A609A60DA601A61022388
:100AEC00BB610123BB621023FB6200237B6307F114
:100AFC001803184600F0EEFB0346002B01D000F063
:100B0C006FF80F237B600023BB600023FB60002386
:100B1C003B6100237B613B1D0021184600F05CFE0D
:100B2C000346002B01D000F05BF800BF4037BD46F8
:100B3C0080BD000080B586B000AF07F1080300222D
:100B4C001A605A609A60DA60224B9B69214A43F022
:100B5C00040393611F4B9B6903F004037B607B6868
:100B6C001C4B9B691B4A43F008039361194B9B690F
:100B7C0003F008033B603B6800224FF6C071164837
:100B8C0000F090FB00224FF6C071144800F08AFB75
:100B9C004FF6C073BB600123FB6000233B61022353
:100BAC007B6107F1080319460B4800F0FFF94FF67B
:100BBC00C073BB600123FB6000233B6102237B619C
:100BCC0007F108031946054800F0F0F900BF183783
:100BDC00BD4680BD0010024000080140000C0140E1
:100BEC0080B400AF72B600BFFEE7000080B483B0E3
:100BFC0000AF0E4B9B690D4A43F0010393610B4B05
:100C0C009B6903F001037B607B68084BDB69074A37
:100C1C0043F08053D361054BDB6903F080533B6099
:100C2C003B6800BF0C37BD4680BC704700100240CB
:100C3C0080B400AFFEE780B400AFFEE780B400AF35
:100C4C00FEE780B400AFFEE780B400AFFEE780B4EF
:100C5C0000AF00BFBD4680BC704780B400AF00BF82
:100C6C00BD4680BC704780B400AF00BFBD4680BCA1
:100C7C00704780B500AF00F075F800BF80BD80B440
:100C8C0000AF00BFBD4680BC704700000C480D494A
:100C9C000D4A002302E0D458C4500433C4188C42CB
:100CAC00F9D30A4A0A4C002301E013600432A24231
:100CBC00FBD3FFF7E4FF00F0FDFEFFF745FC7047A8
:100CCC00000000200C000020481B00080C00002035
:100CDC002C000020FEE7000080B500AF084B1B681D
:100CEC00074A43F010031360032000F02BF90F2088
:100CFC0000F008F8FFF77AFF0023184680BD00BF0C
:100D0C000020024080B582B000AF7860124B1A68A8
:100D1C00124B1B7819464FF47A73B3FBF1F3B2FB09
:100D2C00F3F3184600F035F90346002B01D00123EC
:100D3C000EE07B680F2B0AD8002279684FF0FF3049
:100D4C0000F00BF9064A7B681360002300E00123D6
:100D5C0018460837BD4680BD000000200800002062
:100D6C000400002080B400AF054B1B781A46054BDD
:100D7C001B681344034A136000BFBD4680BC704718
:100D8C00080000202800002080B400AF024B1B6834
:100D9C001846BD4680BC70472800002080B584B042
:100DAC0000AF7860FFF7F0FFB8607B68FB60FB6812
:100DBC00B3F1FF3F05D00A4B1B781A46FB6813446E
:100DCC00FB6000BFFFF7E0FF0246BB68D31AFA686E
:100DDC009A42F7D800BF00BF1037BD4680BD00BF98
:100DEC000800002080B485B000AF78607B6803F009
:100DFC000703FB600C4BDB68BB60BA684FF6FF0364
:100E0C001340BB60FB681A02BB68134343F0BF631B
:100E1C0043F40033BB60044ABB68D36000BF143793
:100E2C00BD4680BC704700BF00ED00E080B400AF51
:100E3C00044BDB681B0A03F007031846BD4680BC55
:100E4C00704700BF00ED00E080B483B000AF0346F4
:100E5C003960FB7197F90730002B0ADB3B68DAB27B
:100E6C000C4997F907301201D2B20B4483F80023D6
:100E7C000AE03B68DAB20849FB7903F00F03043B44
:100E8C001201D2B20B441A7600BF0C37BD4680BC9F
:100E9C00704700BF00E100E000ED00E080B489B0D5
:100EAC0000AFF860B9607A60FB6803F00703FB6180
:100EBC00FB69C3F10703042B28BF0423BB61FB6947
:100ECC000433062B02D9FB69033B00E000237B6152
:100EDC004FF0FF32BB6902FA03F3DA43BB681A40E6
:100EEC007B699A404FF0FF317B6901FA03F3D943D8
:100EFC007B680B40134318462437BD4680BC7047B3
:100F0C0080B582B000AF78607B68013BB3F1807F25
:100F1C0001D301230FE00A4A7B68013B53600F2188
:100F2C004FF0FF30FFF790FF054B00229A60044B07
:100F3C0007221A60002318460837BD4680BD00BF43
:100F4C0010E000E080B582B000AF78607868FFF701
:100F5C0049FF00BF0837BD4680BD80B586B000AFE5
:100F6C000346B9607A60FB7300237B61FFF75EFF79
:100F7C0078617A68B9687869FFF790FF024697F94B
:100F8C000F3011461846FFF75FFF00BF1837BD46FC
:100F9C0080BD80B582B000AF78607868FFF7B0FF95
:100FAC00034618460837BD4680BD000080B48BB0A0
:100FBC0000AF7860396000237B6200233B6261E103
:100FCC0001227B6A02FA03F3FB613B681B68FA6936
:100FDC001340BB61BA69FB699A4240F050813B688F
:100FEC005B68974A93425ED0954A934275D8954A6E
:100FFC00934258D0934A93426FD8934A934252D01B
:10100C00914A934269D8914A93424CD08F4A934269
:10101C0063D88F4A934246D08D4A93425DD8122BA7
:10102C002AD8122B59D801A252F823F0B310000879
:10103C008D1000089F100008E1100008E710000850
:10104C00E7100008E7100008E7100008E710000898
:10105C00E7100008E7100008E7100008E710000888
:10106C00E7100008E7100008E7100008E710000878
:10107C0095100008A9100008764A934213D02CE072
:10108C003B68DB683B6229E03B68DB6804333B620E
:10109C0024E03B68DB6808333B621FE03B68DB689D
:1010AC000C333B621AE03B689B68002B02D1042393
:1010BC003B6213E03B689B68012B05D108233B6224
:1010CC007B68FA691A6109E008233B627B68FA695C
:1010DC005A6103E000233B6200E000BFBB69FF2BB9
:1010EC0001D87B6801E07B6804337B61BB69FF2B13
:1010FC0002D87B6A9B0002E07B6A083B9B003B6149
:10110C007B691A680F213B6901FA03F3DB431A4030
:10111C00396A3B6901FA03F31A437B691A603B682D
:10112C005B6803F08053002B00F0A9804A4B9B694D
:10113C00494A43F001039361474B9B6903F0010358
:10114C00BB60BB68454A7B6A9B08023352F823306C
:10115C00FB607B6A03F003039B000F2202FA03F38C
:10116C00DB43FA681340FB607B683D4A93420DD029
:10117C007B683C4A934207D07B683B4A934201D13F
:10118C00022304E0032302E0012300E000237A6A37
:10119C0002F0030292009340FA681343FB602F495C
:1011AC007B6A9B080233FA6841F823203B685B6832
:1011BC0003F48033002B06D02C4B1A682B49BB69E7
:1011CC0013430B6006E0294B1A68BB69DB432749C4
:1011DC0013400B603B685B6803F40033002B06D0B4
:1011EC00224B5A682149BB6913434B6006E01F4BE5
:1011FC005A68BB69DB431D4913404B603B685B6815
:10120C0003F48013002B06D0184B9A681749BB695E
:10121C0013438B6006E0154B9A68BB69DB4313499B
:10122C0013408B603B685B6803F40013002B1FD0EA
:10123C000E4BDA680D49BB691343CB601FE000BF4E
:10124C0000003210000031100000221000002110AC
:10125C0000001210000011100010024000000140AC
:10126C0000080140000C0140001001400004014046
:10127C000B4BDA68BB69DB4309491340CB607B6AD3
:10128C0001337B623B681A687B6A22FA03F3002BFA
:10129C007FF496AE00BF00BF2C37BD4680BC7047B4
:1012AC000004014080B483B000AF78600B467B80B3
:1012BC0013467B707B78002B03D07A887B681A618D
:1012CC0003E07B881A047B681A6100BF0C37BD46AB
:1012DC0080BC704780B586B000AF78607B68002B0F
:1012EC0001D1012372E27B681B6803F00103002B20
:1012FC0000F08780924B5B6803F00C03042B0CD03E
:10130C008F4B5B6803F00C03082B12D18C4B5B6882
:10131C0003F48033B3F5803F0BD1894B1B6803F486
:10132C000033002B6CD07B685B68002B68D10123E9
:10133C004CE27B685B68B3F5803F06D1804B1B6841
:10134C007F4A43F4803313602EE07B685B68002B8C
:10135C000CD17B4B1B687A4A23F480331360784B97
:10136C001B68774A23F4802313601DE07B685B685D
:10137C00B3F5A02F0CD1724B1B68714A43F4802338
:10138C0013606F4B1B686E4A43F4803313600BE0A1
:10139C006B4B1B686A4A23F480331360684B1B68E1
:1013AC00674A23F4802313607B685B68002B13D09F
:1013BC00FFF7EAFC386108E0FFF7E6FC02463B6900
:1013CC00D31A642B01D9032300E25D4B1B6803F491
:1013DC000033002BF0D014E0FFF7D6FC386108E0A6
:1013EC00FFF7D2FC02463B69D31A642B01D90323C5
:1013FC00ECE1534B1B6803F40033002BF0D100E0FD
:10140C0000BF7B681B6803F00203002B63D04C4BBE
:10141C005B6803F00C03002B0BD0494B5B6803F0AB
:10142C000C03082B1CD1464B5B6803F48033002B58
:10143C0016D1434B1B6803F00203002B05D07B68CD
:10144C001B69012B01D00123C0E13D4B1B6823F02C
:10145C00F8027B685B69DB00394913430B603AE0A7
:10146C007B681B69002B20D0364B01221A60FFF7DA
:10147C008BFC386108E0FFF787FC02463B69D31A06
:10148C00022B01D90323A1E12D4B1B6803F00203AE
:10149C00002BF0D02A4B1B6823F0F8027B685B69A9
:1014AC00DB00274913430B6015E0264B00221A6022
:1014BC00FFF76AFC386108E0FFF766FC02463B69FF
:1014CC00D31A022B01D9032380E11D4B1B6803F0B7
:1014DC000203002BF0D17B681B6803F00803002B80
:1014EC003AD07B689B69002B19D0174B01221A60EC
:1014FC00FFF74AFC386108E0FFF746FC02463B69FF
:10150C00D31A022B01D9032360E10D4B5B6A03F064
:10151C000203002BF0D0012000F0A6FA1CE00A4BCD
:10152C0000221A60FFF730FC38610FE0FFF72CFC4B
:10153C0002463B69D31A022B08D9032346E100BFAC
:10154C00001002400000424280044242924B5B6A0F
:10155C0003F00203002BE9D17B681B6803F0040342
:10156C00002B00F0A6800023FB758B4BDB6903F08E
:10157C008053002B0DD1884BDB69874A43F0805395
:10158C00D361854BDB6903F08053BB60BB680123DF
:10159C00FB75824B1B6803F48073002B18D17F4BB7
:1015AC001B687E4A43F480731360FFF7EDFB3861D0
:1015BC0008E0FFF7E9FB02463B69D31A642B01D91B
:1015CC00032303E1754B1B6803F48073002BF0D0ED
:1015DC007B68DB68012B06D16F4B1B6A6E4A43F0AC
:1015EC00010313622DE07B68DB68002B0CD16A4B86
:1015FC001B6A694A23F001031362674B1B6A664A34
:10160C0023F0040313621CE07B68DB68052B0CD110
:10161C00614B1B6A604A43F0040313625E4B1B6A06
:10162C005D4A43F0010313620BE05B4B1B6A5A4AA1
:10163C0023F001031362584B1B6A574A23F004032F
:10164C0013627B68DB68002B15D0FFF79DFB3861BC
:10165C000AE0FFF799FB02463B69D31A41F2883244
:10166C00934201D90323B1E04B4B1B6A03F00203F5
:10167C00002BEED014E0FFF787FB38610AE0FFF790
:10168C0083FB02463B69D31A41F28832934201D95B
:10169C0003239BE0404B1B6A03F00203002BEED1AB
:1016AC00FB7D012B05D13C4BDB693B4A23F080537E
:1016BC00D3617B68DB69002B00F08780364B5B685D
:1016CC0003F00C03082B61D07B68DB69022B46D13D
:1016DC00334B00221A60FFF757FB386108E0FFF725
:1016EC0053FB02463B69D31A022B01D903236DE04D
:1016FC00294B1B6803F00073002BF0D17B681B6A2D
:10170C00B3F5803F08D1244B5B6823F400327B682F
:10171C009B68214913434B601F4B5B6823F4741285
:10172C007B68196A7B685B6A0B431B4913434B60EC
:10173C001B4B01221A60FFF727FB386108E0FFF70B
:10174C0023FB02463B69D31A022B01D903233DE04C
:10175C00114B1B6803F00073002BF0D035E0104BDD
:10176C0000221A60FFF710FB386108E0FFF70CFB52
:10177C0002463B69D31A022B01D9032326E0064B00
:10178C001B6803F00073002BF0D11EE07B68DB6953
:10179C00012B07D1012319E000100240007000401A
:1017AC00600042420B4B5B68FB60FB6803F48032C9
:1017BC007B681B6A9A4206D1FB6803F470127B6843
:1017CC005B6A9A4201D0012300E0002318461837C7
:1017DC00BD4680BD0010024080B584B000AF78607B
:1017EC0039607B68002B01D10123D0E06A4B1B6868
:1017FC0003F007033A689A4210D9674B1B6823F031
:10180C00070265493B6813430B60634B1B6803F08D
:10181C0007033A689A4201D00123B8E07B681B6841
:10182C0003F00203002B20D07B681B6803F0040339
:10183C00002B05D0594B5B68584A43F4E063536066
:10184C007B681B6803F00803002B05D0534B5B68C7
:10185C00524A43F460535360504B5B6823F0F002E0
:10186C007B689B684D4913434B607B681B6803F096
:10187C000103002B40D07B685B68012B07D1474BE1
:10188C001B6803F40033002B15D101237FE07B6828
:10189C005B68022B07D1414B1B6803F00073002BD4
:1018AC0009D1012373E03D4B1B6803F00203002BAD
:1018BC0001D101236BE0394B5B6823F003027B6899
:1018CC005B68364913434B60FFF75EFAF8600AE039
:1018DC00FFF75AFA0246FB68D31A41F28832934258
:1018EC0001D9032353E02D4B5B6803F00C027B689A
:1018FC005B689B009A42EBD1274B1B6803F00703F4
:10190C003A689A4210D2244B1B6823F007022249F2
:10191C003B6813430B60204B1B6803F007033A68CA
:10192C009A4201D0012332E07B681B6803F0040368
:10193C00002B08D0194B5B6823F4E0627B68DB68F2
:10194C00164913434B607B681B6803F00803002B9C
:10195C0009D0124B5B6823F460527B681B69DB0077
:10196C000E4913434B6000F021F802460B4B5B68A9
:10197C001B0903F00F030A49CB5C22FA03F3094A53
:10198C001360094B1B681846FFF7BCF90023184677
:10199C001037BD4680BD00BF002002400010024041
:1019AC00301B0008000000200400002090B48AB016
:1019BC0000AF294B3C1D0FCB84E80F0040F20123F4
:1019CC003B800023FB610023BB6100237B6200236F
:1019DC007B6100233B62214B5B68FB61FB6903F07D
:1019EC000C03042B02D0082B03D02BE01C4B3B62C6
:1019FC002BE0FB699B0C03F00F0328333B4413F8DB
:101A0C00243C7B61FB6903F48033002B12D0134B15
:101A1C005B685B0C03F0010328333B4413F8283C50
:101A2C00BB617B690E4A03FB02F2BB69B2FBF3F3A9
:101A3C007B6204E07B690B4A02FB03F37B627B6AEB
:101A4C003B6202E0064B3B6200BF3B6A18462837FC
:101A5C00BD4690BC704700BF201B00080010024020
:101A6C0000127A0000093D0080B485B000AF7860A8
:101A7C000A4B1B680A4AA2FB03235B0A7A6802FB27
:101A8C0003F3FB6000BFFB685A1EFA60002BF9D110
:101A9C0000BF00BF1437BD4680BC7047000000205B
:101AAC00D34D621003460244934200D1704703F8B1
:101ABC00011BF9E770B500260C4D0D4C641BA410EE
:101ACC00A64209D100F01AF800260A4D0A4C641BF4
:101ADC00A410A64205D170BD55F8043B98470136B9
:101AEC00EEE755F8043B98470136F2E7401B000837
:101AFC00401B0008401B0008441B0008F8B500BF41
:101B0C00F8BC08BC9E467047F8B500BFF8BC08BCD2
:041B1C009E4670472A
:101B200002030405060708090A0B0C0D0E0F10101E
:101B3000000000000000000001020304060708097D
:041B40003101000867
:041B44000D01000887
:0C1B48000024F400100000000100000068
:0400000508000C994A
:00000001FF
