:020000040800F2
:1000000000280020C50D0008350C00083B0C000836
:10001000410C0008470C00084D0C000800000000CF
:10002000000000000000000000000000530C000869
:100030005F0C0008000000006B0C0008770C000843
:100040000D0E00080D0E00080D0E00080D0E000824
:100050000D0E00080D0E00080D0E00080D0E000814
:100060000D0E00080D0E00080D0E00080D0E000804
:100070000D0E00080D0E00080D0E00080D0E0008F4
:100080000D0E00080D0E00080D0E00080D0E0008E4
:100090000D0E00080D0E00080D0E00080D0E0008D4
:1000A0000D0E00080D0E00080D0E00080D0E0008C4
:1000B000850C00080D0E0008000000000D0E000861
:1000C0000D0E000800000000000000000D0E0008EA
:1000D000000000000D0E00080D0E000800000000DA
:1000E0000D0E00080D0E00080D0E000800000000A7
:1000F0000000000000000000000000000000000000
:0C01000000000000000000005FF808F1A3
:10010C0010B5054C237833B9044B13B10448AFF345
:10011C0000800123237010BD10000020000000009F
:10012C003824000808B5034B1BB103490348AFF34F
:10013C00008008BD000000001400002038240008D6
:10014C0080B582B000AF00F0FFFB00237B607FE046
:10015C00444A7B6813441B78022B46D0022B6DDC7F
:10016C00002B02D0012B22D068E07B68DBB2184652
:10017C0000F01EF90346002B62D03A4A7B68134408
:10018C0001221A70384A7B6852F823305A1C3649BF
:10019C007B6841F82320344A7B6852F82330092BC2
:1001AC004EDD314A7B68002142F8231048E07B6821
:1001BC00DBB2184600F0FCF80346002B05D1294AA7
:1001CC007B68134400221A703CE07B68DBB2184653
:1001DC0000F008F90346002B34D0224A7B68134404
:1001EC0002221A7000F058FD2CE07B68DBB2184636
:1001FC0000F0DEF80346002B04D11A4A7B68134446
:10020C0000221A7000F076FD0346002B1CD0164A13
:10021C007B6852F823305A1C13497B6841F8232021
:10022C00114A7B6852F82330092B04DD0E4A7B6897
:10023C00002142F8231000F02FFD05E000BF04E080
:10024C0000BF02E000BF00E000BF7B6801337B60B1
:10025C007B68032B7FF77CAF00BF00BF0837BD4620
:10026C0080BD00BF000000202C00002080B582B0B3
:10027C0000AF00237B6085E0474A7B681344197804
:10028C00464A7B6813440A461A707B68032B3BD89A
:10029C0001A252F823F000BFB5020008CD020008FD
:1002AC00E5020008FD02000801213D4801F096F826
:1002BC0003461946384A7B6813440A461A7024E0F0
:1002CC000221374801F08AF803461946324A7B6806
:1002DC0013440A461A7018E00421314801F07EF8E4
:1002EC00034619462C4A7B6813440A461A700CE0E4
:1002FC0008212B4801F072F803461946264A7B6800
:10030C0013440A461A7000E000BF244A7B68134469
:10031C001A7821497B680B441B789A4208D11E4AF3
:10032C007B68134419781F4A7B6813440A461A7079
:10033C001C4A7B6813441B78002B16D11A4A7B6825
:10034C0032F81330632B0AD8174A7B6832F8133013
:10035C00013399B2144A7B6822F813100FE0134A48
:10036C007B68134401221A7009E00F4A7B68002154
:10037C0022F813100D4A7B68134400221A707B6814
:10038C0001337B607B68032B7FF776AF00BF00BF28
:10039C000837BD4680BD00BF40000020440000204F
:1003AC00000C01403C0000204C00002048000020C4
:1003BC0080B483B000AF0346FB71FB79032B01D9EA
:1003CC00002307E0FB79064AD35C002B0CBF01230A
:1003DC000023DBB218460C37BD4680BC704700BF0B
:1003EC003C00002080B483B000AF0346FB71FB7966
:1003FC00032B01D9002307E0FB79064AD35C012BC0
:10040C000CBF01230023DBB218460C37BD4680BC61
:10041C00704700BF4800002080B582B000AF786004
:10042C007B68092B00F2C88101A252F823F000BFAF
:10043C0065040008BB0400081105000867050008E6
:10044C00BD0500081306000869060008BF06000871
:10045C00150700086B07000800224FF40071D548FF
:10046C0000F0D3FF00224FF48061D24800F0CDFFA2
:10047C0000224FF40061CF4800F0C7FF00224FF478
:10048C008051CC4800F0C1FF00224FF40051C94804
:10049C0000F0BBFF00224FF48041C64800F0B5FFCE
:1004AC0001224FF40041C34800F0AFFFAFE101223D
:1004BC004FF40071BF4800F0A8FF00224FF4806198
:1004CC00BC4800F0A2FF00224FF40061B94800F0D4
:1004DC009CFF01224FF48051B64800F096FF012298
:1004EC004FF40051B34800F090FF01224FF48041CB
:1004FC00B04800F08AFF01224FF40041AD4800F0F3
:10050C0084FF84E100224FF40071AA4800F07DFFC3
:10051C0000224FF48061A74800F077FF01224FF4CE
:10052C000061A44800F071FF00224FF48051A148F3
:10053C0000F06BFF00224FF400519E4800F065FF65
:10054C0001224FF480419B4800F05FFF00224FF4E2
:10055C000041984800F059FF59E100224FF4007116
:10056C00944800F052FF00224FF48061914800F053
:10057C004CFF00224FF400618E4800F046FF002231
:10058C004FF480518B4800F040FF01224FF4005192
:10059C00884800F03AFF01224FF48041854800F072
:1005AC0034FF00224FF40041824800F02EFF2EE170
:1005BC0001224FF400717F4800F027FF00224FF416
:1005CC0080617C4800F021FF00224FF400617948E3
:1005DC0000F01BFF01224FF48051764800F015FF0C
:1005EC0001224FF40051734800F00FFF00224FF42A
:1005FC008041704800F009FF00224FF400416D4823
:10060C0000F003FF03E100224FF40071694800F091
:10061C00FCFE01224FF48061664800F0F6FE0022D9
:10062C004FF40061634800F0F0FE00224FF480515B
:10063C00604800F0EAFE01224FF400515D4800F0E2
:10064C00E4FE00224FF480415A4800F0DEFE002206
:10065C004FF40041574800F0D8FED8E000224FF488
:10066C000071544800F0D1FE01224FF480615148D2
:10067C0000F0CBFE00224FF400614E4800F0C5FEA6
:10068C0000224FF480514B4800F0BFFE00224FF483
:10069C000051484800F0B9FE00224FF48041454813
:1006AC0000F0B3FE00224FF40041424800F0ADFED2
:1006BC00ADE000224FF400713E4800F0A6FE00228F
:1006CC004FF480613B4800F0A0FE00224FF4006123
:1006DC00384800F09AFE01224FF48051354800F062
:1006EC0094FE01224FF40051324800F08EFE01229C
:1006FC004FF480412F4800F088FE01224FF4004156
:10070C002C4800F082FE82E000224FF40071294850
:10071C0000F07BFE00224FF48061264800F075FE4D
:10072C0000224FF40061234800F06FFE00224FF4CA
:10073C008051204800F069FE00224FF400511D4802
:10074C0000F063FE00224FF480411A4800F05DFE79
:10075C0000224FF40041174800F057FE57E00022EA
:10076C004FF40071134800F050FE00224FF48061EA
:10077C00104800F04AFE00224FF400610D4800F0D2
:10078C0044FE00224FF480510A4800F03EFE012244
:10079C004FF40051074800F038FE00224FF480411E
:1007AC00044800F032FE00224FF40041014800F0F2
:1007BC002CFE2CE00008014001224FF40071164879
:1007CC0000F023FE01224FF48061134800F01DFE5F
:1007DC0001224FF40061104800F017FE01224FF483
:1007EC0080510D4800F011FE01224FF400510A48CF
:1007FC0000F00BFE01224FF48041074800F005FE8B
:10080C0001224FF40041044800F0FFFD00BF00BF7F
:10081C000837BD4680BD00BF0008014080B582B0DE
:10082C0000AF78607B68032B00F2848001A252F841
:10083C0023F000BF510800088D080008C908000803
:10084C00050900083E4B1B681846FFF7E5FD012221
:10085C004FF480713B4800F0D8FD00224FF400713A
:10086C00384800F0D2FD00224FF48061354800F08A
:10087C00CCFD00224FF40061324800F0C6FD5AE076
:10088C002F4B5B681846FFF7C7FD00224FF48071B1
:10089C002C4800F0BAFD01224FF40071294800F0F9
:1008AC00B4FD00224FF48061264800F0AEFD00221A
:1008BC004FF40061234800F0A8FD3CE0204B9B68FE
:1008CC001846FFF7A9FD00224FF480711D4800F077
:1008DC009CFD00224FF400711A4800F096FD012295
:1008EC004FF48061174800F090FD00224FF4006136
:1008FC00144800F08AFD1EE0114BDB681846FFF728
:10090C008BFD00224FF480710E4800F07EFD00221A
:10091C004FF400710B4800F078FD00224FF4806119
:10092C00084800F072FD01224FF40061054800F008
:10093C006CFD00E000BF00BF0837BD4680BD00BFA6
:10094C002C000020000C014080B500AF0C4B1B6844
:10095C001846FFF763FF00F00BFA0346002B0DD08F
:10096C00074B1B680133064A1360054B1B68032BAE
:10097C0002DD034B00221A6000F0CCF900BF80BDF1
:10098C005400002080B500AF00F03CFA00F016F8DF
:10099C0000F09CF800F04EF8064801F087F90022B0
:1009AC002021054800F031FD00F0B4F9FFF7C8FB39
:1009BC00FCE700BF580000200008014080B590B053
:1009CC0000AF07F1180328220021184601F002FDA0
:1009DC003B1D00221A605A609A60DA601A61022389
:1009EC00BB610123BB621023FB6200237B6307F115
:1009FC001803184600F022FD0346002B01D000F02E
:100A0C00C7F80F237B600023BB600023FB6000232F
:100A1C003B6100237B613B1D0021184600F090FFD9
:100A2C000346002B01D000F0B3F800BF4037BD46A1
:100A3C0080BD000080B586B000AF07F1080300222E
:100A4C001A605A609A60DA603B4600221A605A605B
:100A5C001D4B4FF080421A601B4B41F63F725A609F
:100A6C00194B00229A60184B0922DA60164B0022AF
:100A7C001A61154B00229A61134801F0C7F803461E
:100A8C00002B01D000F084F84FF48053BB6007F1C9
:100A9C00080319460C4801F05DFA0346002B01D0FF
:100AAC0000F076F800233B6000237B603B46194640
:100ABC00054801F025FC0346002B01D000F068F836
:100ACC0000BF1837BD4680BD5800002080B586B0E9
:100ADC0000AF07F1080300221A605A609A60DA60CE
:100AEC00284B9B69274A43F004039361254B9B6970
:100AFC0003F004037B607B68224B9B69214A43F023
:100B0C00080393611F4B9B6903F008033B603B6830
:100B1C0000224FF620611C4800F077FC00224FF4B5
:100B2C0070611A4800F071FC4FF62063BB60012322
:100B3C00FB6000233B6102237B6107F1080319462C
:100B4C00114800F0CFFA0F23BB600023FB60012398
:100B5C003B6107F1080319460C4800F0C3FA4FF447
:100B6C007063BB600123FB6000233B6102237B614C
:100B7C0007F108031946054800F0B4FA00BF18370E
:100B8C00BD4680BD0010024000080140000C014031
:100B9C0080B400AF72B600BFFEE7000080B483B033
:100BAC0000AF0E4B9B690D4A43F0010393610B4B55
:100BBC009B6903F001037B607B68084BDB69074A88
:100BCC0043F08053D361054BDB6903F080533B60EA
:100BDC003B6800BF0C37BD4680BC7047001002401C
:100BEC0080B584B000AF78607B681B68B3F1804F30
:100BFC0013D10C4BDB690B4A43F00103D361094B56
:100C0C00DB6903F00103FB60FB68002200211C2060
:100C1C0000F031FA1C2000F04AFA00BF1037BD4634
:100C2C0080BD00BF0010024080B400AFFEE780B46E
:100C3C0000AFFEE780B400AFFEE780B400AFFEE784
:100C4C0080B400AFFEE780B400AF00BFBD4680BCEF
:100C5C00704780B400AF00BFBD4680BC704780B405
:100C6C0000AF00BFBD4680BC704780B500AF00F040
:100C7C000FF900BF80BD000080B500AF024801F045
:100C8C0061F800BF80BD00BF5800002080B400AFE9
:100C9C0000BFBD4680BC704780B400AF4FF4FA7201
:100CAC000A2392FBF3F3044A1360044B00221A60EC
:100CBC0000BFBD4680BC7047A0000020A4000020EF
:100CCC0080B400AF094B1B68002B0BDD074B1B6876
:100CDC00013B064A1360054B1B68002B02D1044BE9
:100CEC0001221A6000BFBD4680BC7047A0000020E6
:100CFC00A400002080B400AF054B1B68012B0CBF77
:100D0C0001230023DBB21846BD4680BC704700BFF0
:100D1C00A400002080B400AFFA220A2392FBF3F364
:100D2C00044A1360044B00221A6000BFBD4680BC0D
:100D3C00704700BFA8000020AC00002080B400AFBA
:100D4C00094B1B68002B0BDD074B1B68013B064A4C
:100D5C001360054B1B68002B02D1044B01221A6057
:100D6C0000BFBD4680BC7047A8000020AC0000202E
:100D7C0080B400AF054B1B68012B0CBF0123002373
:100D8C00DBB21846BD4680BC704700BFAC000020EB
:100D9C0080B582B000AF7860FFF792FFFFF7CEFF0F
:100DAC007B681B68B3F1804F01D1FFF75FFA00BF7E
:100DBC000837BD4680BD00000C480D490D4A002384
:100DCC0002E0D458C4500433C4188C42F9D30A4AF4
:100DDC000A4C002301E013600432A242FBD3FFF75C
:100DEC0055FF01F0FFFAFFF7CDFD70470000002022
:100DFC00100000207824000810000020B40000200F
:100E0C00FEE7000080B500AF084B1B68074A43F0B3
:100E1C0010031360032000F023F90F2000F008F8F2
:100E2C00FFF7BCFE0023184680BD00BF0020024027
:100E3C0080B582B000AF7860124B1A68124B1B78E9
:100E4C0019464FF47A73B3FBF1F3B2FBF3F3184684
:100E5C0000F03BF90346002B01D001230EE07B6828
:100E6C000F2B0AD8002279684FF0FF3000F003F9FD
:100E7C00064A7B681360002300E0012318460837FC
:100E8C00BD4680BD040000200C000020080000209E
:100E9C0080B400AF054B1B781A46054B1B681344F6
:100EAC00034A136000BFBD4680BC70470C00002095
:100EBC00B000002080B400AF024B1B681846BD4642
:100ECC0080BC7047B000002080B485B000AF786063
:100EDC007B6803F00703FB600C4BDB68BB60BA68F4
:100EEC004FF6FF031340BB60FB681A02BB68134349
:100EFC0043F0BF6343F40033BB60044ABB68D36068
:100F0C0000BF1437BD4680BC704700BF00ED00E049
:100F1C0080B400AF044BDB681B0A03F007031846D0
:100F2C00BD4680BC704700BF00ED00E080B483B0CC
:100F3C0000AF0346FB7197F90730002B0BDBFB79F5
:100F4C0003F01F02064997F907305B09012000FAEC
:100F5C0002F241F8232000BF0C37BD4680BC70471D
:100F6C0000E100E080B483B000AF03463960FB7150
:100F7C0097F90730002B0ADB3B68DAB20C4997F97A
:100F8C0007301201D2B20B4483F800230AE03B680D
:100F9C00DAB20849FB7903F00F03043B1201D2B219
:100FAC000B441A7600BF0C37BD4680BC704700BF9F
:100FBC0000E100E000ED00E080B489B000AFF86023
:100FCC00B9607A60FB6803F00703FB61FB69C3F14E
:100FDC000703042B28BF0423BB61FB690433062BD6
:100FEC0002D9FB69033B00E000237B614FF0FF3229
:100FFC00BB6902FA03F3DA43BB681A407B699A4077
:10100C004FF0FF317B6901FA03F3D9437B680B4046
:10101C00134318462437BD4680BC704780B582B058
:10102C0000AF78607B68013BB3F1807F01D3012373
:10103C000FE00A4A7B68013B53600F214FF0FF30F1
:10104C00FFF790FF054B00229A60044B07221A60B1
:10105C00002318460837BD4680BD00BF10E000E0F5
:10106C0080B582B000AF78607868FFF72DFF00BFC5
:10107C000837BD4680BD80B586B000AF0346B96069
:10108C007A60FB7300237B61FFF742FF78617A681B
:10109C00B9687869FFF790FF024697F90F3011464F
:1010AC001846FFF75FFF00BF1837BD4680BD80B5FF
:1010BC0082B000AF0346FB7197F907301846FFF773
:1010CC0035FF00BF0837BD4680BD80B582B000AF8C
:1010DC0078607868FFF7A2FF034618460837BD46CC
:1010EC0080BD000080B48BB000AF78603960002305
:1010FC007B6200233B6261E101227B6A02FA03F30B
:10110C00FB613B681B68FA691340BB61BA69FB69F8
:10111C009A4240F050813B685B68974A93425ED09C
:10112C00954A934275D8954A934258D0934A934224
:10113C006FD8934A934252D0914A934269D8914ABC
:10114C0093424CD08F4A934263D88F4A934246D0F5
:10115C008D4A93425DD8122B2AD8122B59D801A252
:10116C0052F823F0EB110008C5110008D711000844
:10117C00191200081F1200081F1200081F12000885
:10118C001F1200081F1200081F1200081F1200086F
:10119C001F1200081F1200081F1200081F1200085F
:1011AC001F1200081F120008CD110008E1110008E1
:1011BC00764A934213D02CE03B68DB683B6229E013
:1011CC003B68DB6804333B6224E03B68DB68083334
:1011DC003B621FE03B68DB680C333B621AE03B6808
:1011EC009B68002B02D104233B6213E03B689B6895
:1011FC00012B05D108233B627B68FA691A6109E06F
:10120C0008233B627B68FA695A6103E000233B6266
:10121C0000E000BFBB69FF2B01D87B6801E07B6855
:10122C0004337B61BB69FF2B02D87B6A9B0002E015
:10123C007B6A083B9B003B617B691A680F213B6909
:10124C0001FA03F3DB431A40396A3B6901FA03F3F1
:10125C001A437B691A603B685B6803F08053002B70
:10126C0000F0A9804A4B9B69494A43F00103936102
:10127C00474B9B6903F00103BB60BB68454A7B6A23
:10128C009B08023352F82330FB607B6A03F00303A4
:10129C009B000F2202FA03F3DB43FA681340FB6056
:1012AC007B683D4A93420DD07B683C4A934207D001
:1012BC007B683B4A934201D1022304E0032302E002
:1012CC00012300E000237A6A02F0030292009340AB
:1012DC00FA681343FB602F497B6A9B080233FA6858
:1012EC0041F823203B685B6803F48033002B06D065
:1012FC002C4B1A682B49BB6913430B6006E0294B36
:10130C001A68BB69DB43274913400B603B685B6879
:10131C0003F40033002B06D0224B5A682149BB69D9
:10132C0013434B6006E01F4B5A68BB69DB431D49F6
:10133C0013404B603B685B6803F48013002B06D0B2
:10134C00184B9A681749BB6913438B6006E0154B21
:10135C009A68BB69DB43134913408B603B685B683D
:10136C0003F40013002B1FD00E4BDA680D49BB6938
:10137C001343CB601FE000BF00003210000031109F
:10138C0000002210000021100000121000001110AB
:10139C00001002400000014000080140000C014018
:1013AC0000100140000401400B4BDA68BB69DB43C1
:1013BC0009491340CB607B6A01337B623B681A6836
:1013CC007B6A22FA03F3002B7FF496AE00BF00BFBA
:1013DC002C37BD4680BC70470004014080B485B0FA
:1013EC0000AF78600B467B807B689A687B881340E3
:1013FC00002B02D00123FB7301E00023FB73FB7B6A
:10140C0018461437BD4680BC704780B483B000AF1B
:10141C0078600B467B8013467B707B78002B03D067
:10142C007A887B681A6103E07B881A047B681A61EE
:10143C0000BF0C37BD4680BC7047000080B586B03D
:10144C0000AF78607B68002B01D1012372E27B68CE
:10145C001B6803F00103002B00F08780924B5B6844
:10146C0003F00C03042B0CD08F4B5B6803F00C03C4
:10147C00082B12D18C4B5B6803F48033B3F5803F9F
:10148C000BD1894B1B6803F40033002B6CD07B68A9
:10149C005B68002B68D101234CE27B685B68B3F579
:1014AC00803F06D1804B1B687F4A43F48033136026
:1014BC002EE07B685B68002B0CD17B4B1B687A4A57
:1014CC0023F480331360784B1B68774A23F4802312
:1014DC0013601DE07B685B68B3F5A02F0CD1724BD9
:1014EC001B68714A43F4802313606F4B1B686E4A70
:1014FC0043F4803313600BE06B4B1B686A4A23F494
:10150C0080331360684B1B68674A23F48023136095
:10151C007B685B68002B13D0FFF7CCFC386108E0CC
:10152C00FFF7C8FC02463B69D31A642B01D903238D
:10153C0000E25D4B1B6803F40033002BF0D014E089
:10154C00FFF7B8FC386108E0FFF7B4FC02463B69D2
:10155C00D31A642B01D90323ECE1534B1B6803F41E
:10156C000033002BF0D100E000BF7B681B6803F058
:10157C000203002B63D04C4B5B6803F00C03002B75
:10158C000BD0494B5B6803F00C03082B1CD1464B6A
:10159C005B6803F48033002B16D1434B1B6803F0BC
:1015AC000203002B05D07B681B69012B01D00123A2
:1015BC00C0E13D4B1B6823F0F8027B685B69DB00E4
:1015CC00394913430B603AE07B681B69002B20D030
:1015DC00364B01221A60FFF76DFC386108E0FFF70B
:1015EC0069FC02463B69D31A022B01D90323A1E102
:1015FC002D4B1B6803F00203002BF0D02A4B1B6809
:10160C0023F0F8027B685B69DB00274913430B600E
:10161C0015E0264B00221A60FFF74CFC386108E0FD
:10162C00FFF748FC02463B69D31A022B01D903236E
:10163C0080E11D4B1B6803F00203002BF0D17B688B
:10164C001B6803F00803002B3AD07B689B69002BC6
:10165C0019D0174B01221A60FFF72CFC386108E0F7
:10166C00FFF728FC02463B69D31A022B01D903234E
:10167C0060E10D4B5B6A03F00203002BF0D00120FC
:10168C0000F0A6FA1CE00A4B00221A60FFF712FCCD
:10169C0038610FE0FFF70EFC02463B69D31A022BB0
:1016AC0008D9032346E100BF00100240000042426B
:1016BC0080044242924B5B6A03F00203002BE9D197
:1016CC007B681B6803F00403002B00F0A68000234A
:1016DC00FB758B4BDB6903F08053002B0DD1884BD2
:1016EC00DB69874A43F08053D361854BDB6903F098
:1016FC008053BB60BB680123FB75824B1B6803F4F2
:10170C008073002B18D17F4B1B687E4A43F4807387
:10171C001360FFF7CFFB386108E0FFF7CBFB024605
:10172C003B69D31A642B01D9032303E1754B1B6866
:10173C0003F48073002BF0D07B68DB68012B06D19F
:10174C006F4B1B6A6E4A43F0010313622DE07B68FA
:10175C00DB68002B0CD16A4B1B6A694A23F001032E
:10176C001362674B1B6A664A23F0040313621CE086
:10177C007B68DB68052B0CD1614B1B6A604A43F01C
:10178C00040313625E4B1B6A5D4A43F00103136250
:10179C000BE05B4B1B6A5A4A23F001031362584B54
:1017AC001B6A574A23F0040313627B68DB68002B27
:1017BC0015D0FFF77FFB38610AE0FFF77BFB024691
:1017CC003B69D31A41F28832934201D90323B1E029
:1017DC004B4B1B6A03F00203002BEED014E0FFF717
:1017EC0069FB38610AE0FFF765FB02463B69D31AD7
:1017FC0041F28832934201D903239BE0404B1B6A90
:10180C0003F00203002BEED1FB7D012B05D13C4BE9
:10181C00DB693B4A23F08053D3617B68DB69002B87
:10182C0000F08780364B5B6803F00C03082B61D00B
:10183C007B68DB69022B46D1334B00221A60FFF721
:10184C0039FB386108E0FFF735FB02463B69D31AD8
:10185C00022B01D903236DE0294B1B6803F00073A5
:10186C00002BF0D17B681B6AB3F5803F08D1244B69
:10187C005B6823F400327B689B68214913434B60FF
:10188C001F4B5B6823F474127B68196A7B685B6A74
:10189C000B431B4913434B601B4B01221A60FFF790
:1018AC0009FB386108E0FFF705FB02463B69D31AD8
:1018BC00022B01D903233DE0114B1B6803F000738D
:1018CC00002BF0D035E0104B00221A60FFF7F2FA33
:1018DC00386108E0FFF7EEFA02463B69D31A022B97
:1018EC0001D9032326E0064B1B6803F00073002B81
:1018FC00F0D11EE07B68DB69012B07D1012319E0D5
:10190C000010024000700040600042420B4B5B68CC
:10191C00FB60FB6803F480327B681B6A9A4206D139
:10192C00FB6803F470127B685B6A9A4201D0012356
:10193C0000E0002318461837BD4680BD0010024059
:10194C0080B584B000AF786039607B68002B01D122
:10195C000123D0E06A4B1B6803F007033A689A42F4
:10196C0010D9674B1B6823F0070265493B6813438A
:10197C000B60634B1B6803F007033A689A4201D073
:10198C000123B8E07B681B6803F00203002B20D016
:10199C007B681B6803F00403002B05D0594B5B6874
:1019AC00584A43F4E06353607B681B6803F00803F8
:1019BC00002B05D0534B5B68524A43F46053536081
:1019CC00504B5B6823F0F0027B689B684D491343D6
:1019DC004B607B681B6803F00103002B40D07B68D5
:1019EC005B68012B07D1474B1B6803F40033002BBA
:1019FC0015D101237FE07B685B68022B07D1414B3B
:101A0C001B6803F00073002B09D1012373E03D4BDD
:101A1C001B6803F00203002B01D101236BE0394B4F
:101A2C005B6823F003027B685B68364913434B60A9
:101A3C00FFF740FAF8600AE0FFF73CFA0246FB6851
:101A4C00D31A41F28832934201D9032353E02D4B30
:101A5C005B6803F00C027B685B689B009A42EBD1DD
:101A6C00274B1B6803F007033A689A4210D2244BA9
:101A7C001B6823F0070222493B6813430B60204B81
:101A8C001B6803F007033A689A4201D0012332E045
:101A9C007B681B6803F00403002B08D0194B5B68B0
:101AAC0023F4E0627B68DB68164913434B607B6868
:101ABC001B6803F00803002B09D0124B5B6823F45E
:101ACC0060527B681B69DB000E4913434B6000F0CE
:101ADC0021F802460B4B5B681B0903F00F030A4904
:101AEC00CB5C22FA03F3094A1360094B1B681846B6
:101AFC00FFF79EF9002318461037BD4680BD00BF86
:101B0C000020024000100240602400080400002065
:101B1C000800002090B48AB000AF294B3C1D0FCBBD
:101B2C0084E80F0040F201233B800023FB6100237B
:101B3C00BB6100237B6200237B6100233B62214B52
:101B4C005B68FB61FB6903F00C03042B02D0082BD0
:101B5C0003D02BE01C4B3B622BE0FB699B0C03F08E
:101B6C000F0328333B4413F8243C7B61FB6903F4DB
:101B7C008033002B12D0134B5B685B0C03F001031A
:101B8C0028333B4413F8283CBB617B690E4A03FBAA
:101B9C0002F2BB69B2FBF3F37B6204E07B690B4A94
:101BAC0002FB03F37B627B6A3B6202E0064B3B6207
:101BBC0000BF3B6A18462837BD4690BC704700BF33
:101BCC00502400080010024000127A0000093D0069
:101BDC0080B485B000AF78600A4B1B680A4AA2FB40
:101BEC0003235B0A7A6802FB03F3FB6000BFFB680C
:101BFC005A1EFA60002BF9D100BF00BF1437BD4646
:101C0C0080BC704704000020D34D621080B582B0B8
:101C1C0000AF78607B68002B01D1012341E07B6829
:101C2C0093F83D30DBB2002B06D17B68002283F8A1
:101C3C003C207868FEF7D4FF7B68022283F83D20B5
:101C4C007B681A687B6804331946104600F06AFA00
:101C5C007B68012283F846207B68012283F83E20B2
:101C6C007B68012283F83F207B68012283F84020A7
:101C7C007B68012283F841207B68012283F8422093
:101C8C007B68012283F843207B68012283F844207F
:101C9C007B68012283F845207B68012283F83D2074
:101CAC00002318460837BD4680BD000080B485B0BF
:101CBC0000AF78607B6893F83D30DBB2012B01D02C
:101CCC00012335E07B68022283F83D207B681B688A
:101CDC00DA687B681B6842F00102DA607B681B687B
:101CEC00164A934209D07B681B68B3F1804F04D02D
:101CFC007B681B68124A934211D17B681B689B68F6
:101D0C0003F00703FB60FB68062B10D07B681B6895
:101D1C001A687B681B6842F001021A6007E07B6856
:101D2C001B681A687B681B6842F001021A6000236A
:101D3C0018461437BD4680BC704700BF002C0140CC
:101D4C000004004080B582B000AF78607B681B68EF
:101D5C001B6903F00203022B22D17B681B68DB6832
:101D6C0003F00203022B1BD17B681B686FF002028D
:101D7C001A617B6801221A777B681B689B6903F0E8
:101D8C000303002B03D0786800F0B1F905E0786804
:101D9C0000F0A4F9786800F0B3F97B6800221A7798
:101DAC007B681B681B6903F00403042B22D17B683E
:101DBC001B68DB6803F00403042B1BD17B681B68D6
:101DCC006FF004021A617B6802221A777B681B6829
:101DDC009B6903F44073002B03D0786800F087F9FB
:101DEC0005E0786800F07AF9786800F089F97B688A
:101DFC0000221A777B681B681B6903F00803082B09
:101E0C0022D17B681B68DB6803F00803082B1BD10D
:101E1C007B681B686FF008021A617B6804221A77D2
:101E2C007B681B68DB6903F00303002B03D0786825
:101E3C0000F05DF905E0786800F050F9786800F082
:101E4C005FF97B6800221A777B681B681B6903F0BB
:101E5C001003102B22D17B681B68DB6803F0100386
:101E6C00102B1BD17B681B686FF010021A617B680A
:101E7C0008221A777B681B68DB6903F44073002B1C
:101E8C0003D0786800F033F905E0786800F026F9A3
:101E9C00786800F035F97B6800221A777B681B683C
:101EAC001B6903F00103012B0ED17B681B68DB68F7
:101EBC0003F00103012B07D17B681B686FF0010253
:101ECC001A617868FEF764FF7B681B681B6903F076
:101EDC008003802B0ED17B681B68DB6803F08003CA
:101EEC00802B07D17B681B686FF080021A617868C1
:101EFC0000F067FA7B681B681B6903F04003402BFA
:101F0C000ED17B681B68DB6803F04003402B07D1C4
:101F1C007B681B686FF040021A61786800F0F9F872
:101F2C007B681B681B6903F02003202B0ED17B6898
:101F3C001B68DB6803F02003202B07D17B681B6830
:101F4C006FF020021A61786800F032FA00BF08378F
:101F5C00BD4680BD80B584B000AF786039607B68C9
:101F6C0093F83C30012B01D10223B3E07B680122B2
:101F7C0083F83C207B68022283F83D207B681B6839
:101F8C009B68FB60FB6823F07703FB60FB6823F422
:101F9C007F43FB607B681B68FA689A603B681B6830
:101FAC00B3F5005F3ED0B3F5005F00F28780B3F568
:101FBC00805F00F08580B3F5805F7FD8702B1AD0DE
:101FCC00702B7BD8602B50D0602B77D8502B3CD00B
:101FDC00502B73D8402B58D0402B6FD8302B64D05B
:101FEC00302B6BD8202B60D0202B67D8002B5CD0EB
:101FFC00102B5AD062E07B6818683B6899683B6884
:10200C005A683B68DB6800F05CF97B681B689B686E
:10201C00FB60FB6843F07703FB607B681B68FA6826
:10202C009A604EE07B6818683B6899683B685A6810
:10203C003B68DB6800F045F97B681B689A687B6835
:10204C001B6842F480429A603BE07B6818683B68EE
:10205C0059683B68DB681A4600F0BCF87B681B6863
:10206C005021184600F013F92BE07B6818683B6888
:10207C0059683B68DB681A4600F0DAF87B681B6825
:10208C006021184600F003F91BE07B6818683B6878
:10209C0059683B68DB681A4600F09CF87B681B6843
:1020AC004021184600F0F3F80BE07B681A683B6897
:1020BC001B681946104600F0EAF802E000BF00E089
:1020CC0000BF7B68012283F83D207B68002283F8E7
:1020DC003C20002318461037BD4680BD80B483B029
:1020EC0000AF786000BF0C37BD4680BC704780B431
:1020FC0083B000AF786000BF0C37BD4680BC704722
:10210C0080B483B000AF786000BF0C37BD4680BC94
:10211C00704780B483B000AF786000BF0C37BD4609
:10212C0080BC704780B485B000AF786039607B6844
:10213C001B68FB607B68254A934207D07B68B3F130
:10214C00804F03D07B68224A934208D1FB6823F06E
:10215C007003FB603B685B68FA681343FB607B6849
:10216C001A4A934207D07B68B3F1804F03D07B6847
:10217C00174A934208D1FB6823F44073FB603B6819
:10218C00DB68FA681343FB60FB6823F080023B6852
:10219C005B691343FB607B68FA681A603B689A685A
:1021AC007B68DA623B681A687B689A627B68074ACC
:1021BC00934203D13B681A697B681A637B680122DE
:1021CC005A6100BF1437BD4680BC7047002C0140DB
:1021DC000004004080B487B000AFF860B9607A604A
:1021EC00FB681B6A7B61FB681B6A23F00102FB68BE
:1021FC001A62FB689B693B613B6923F0F0033B610E
:10220C007B681B013A6913433B617B6923F00A032A
:10221C007B617A69BB6813437B61FB683A699A619D
:10222C00FB687A691A6200BF1C37BD4680BC7047D8
:10223C0080B487B000AFF860B9607A60FB681B6A45
:10224C0023F01002FB681A62FB689B697B61FB68D8
:10225C001B6A3B617B6923F470437B617B681B03C6
:10226C007A6913437B613B6923F0A0033B61BB6834
:10227C001B013A6913433B61FB687A699A61FB68FD
:10228C003A691A6200BF1C37BD4680BC704780B4E7
:10229C0085B000AF786039607B689B68FB60FB6839
:1022AC0023F07003FB603A68FB68134343F00703A9
:1022BC00FB607B68FA689A6000BF1437BD4680BC2F
:1022CC00704780B487B000AFF860B9607A603B604B
:1022DC00FB689B687B617B6923F47F437B613B6874
:1022EC001A027B681A43BB6813437A6913437B61F8
:1022FC00FB687A699A6000BF1C37BD4680BC70478A
:10230C0080B485B000AF786039607B6893F83C305E
:10231C00012B01D1022341E07B68012283F83C2090
:10232C007B68022283F83D207B681B685B68FB603E
:10233C007B681B689B68BB60FB6823F07003FB60C9
:10234C003B681B68FA681343FB607B681B68FA6880
:10235C005A607B681B68144A934209D07B681B68DF
:10236C00B3F1804F04D07B681B68104A93420CD1A8
:10237C00BB6823F08003BB603B685B68BA6813439F
:10238C00BB607B681B68BA689A607B68012283F823
:10239C003D207B68002283F83C200023184614372C
:1023AC00BD4680BC704700BF002C014000040040BB
:1023BC0080B483B000AF786000BF0C37BD4680BCE2
:1023CC00704780B483B000AF786000BF0C37BD4657
:1023DC0080BC704703460244934200D1704703F817
:1023EC00011BF9E770B500260C4D0D4C641BA410B5
:1023FC00A64209D100F01AF800260A4D0A4C641BBB
:10240C00A410A64205D170BD55F8043B984701367F
:10241C00EEE755F8043B98470136F2E770240008C4
:10242C00702400087024000874240008F8B500BF5C
:10243C00F8BC08BC9E467047F8B500BFF8BC08BC99
:04244C009E467047F1
:1024500002030405060708090A0B0C0D0E0F1010E5
:102460000000000000000000010203040607080944
:04247000310100082E
:042474000D0100084E
:10247800010101010024F400100000000100000027
:0400000508000DC51D
:00000001FF
