:020000040800F2
:100000000028002099190008291900082F19000854
:10001000351900083B1900084119000800000000CC
:100020000000000000000000000000004719000868
:1000300053190008000000005F1900086B19000840
:10004000E1190008E1190008E1190008E1190008A8
:10005000E1190008E1190008E1190008E119000898
:10006000E1190008E1190008E1190008E119000888
:10007000E1190008E1190008E1190008E119000878
:10008000E1190008E1190008E1190008E119000868
:10009000E1190008E1190008E1190008E119000858
:1000A000E1190008E1190008E1190008E119000848
:1000B00079190008E119000800000000E1190008A2
:1000C000E11900080000000000000000E11900082C
:1000D00000000000E1190008E1190008000000001C
:1000E000E1190008E1190008E1190008000000000A
:1000F0000000000000000000000000000000000000
:0C01000000000000000000005FF808F1A3
:10010C0010B5054C237833B9044B13B10448AFF345
:10011C0000800123237010BD480000200000000067
:10012C003C30000808B5034B1BB103490348AFF33F
:10013C00008008BD000000004C0000203C3000088E
:10014C0080B582B000AF00237B6084E0464A7B68B8
:10015C0013441978454A7B6813440A461A707B6825
:10016C00032B3BD801A252F823F000BF89010008F1
:10017C00A1010008B9010008D101000801213C4887
:10018C0001F016FF03461946374A7B6813440A46AA
:10019C001A7024E00221364801F00AFF0346194682
:1001AC00314A7B6813440A461A7018E0042130481F
:1001BC0001F0FEFE034619462B4A7B6813440A469F
:1001CC001A700CE008212A4801F0F2FE0346194689
:1001DC00254A7B6813440A461A7000E000BF234A84
:1001EC007B6813441A7820497B680B441B789A422D
:1001FC0008D11E4A7B68134419781E4A7B68134445
:10020C000A461A701B4A7B6813441B78002B15D1C5
:10021C00194A7B6852F82330632B09DC164A7B6839
:10022C0052F823305A1C14497B6841F823200FE004
:10023C00124A7B68134401221A7009E00E4A7B684B
:10024C00002142F823100D4A7B68134400221A70D7
:10025C007B6801337B607B68032B7FF777AF00BF34
:10026C0000BF0837BD4680BD6C0000206800002030
:10027C00000C01406400002074000020700000207D
:10028C0080B483B000AF78607B68002B02DB7B68A6
:10029C00032B01DD002308E0064A7B6813441B781E
:1002AC00002B0CBF01230023DBB218460C37BD46D4
:1002BC0080BC70476400002080B483B000AF7860CD
:1002CC007B68002B02DB7B68032B01DD002308E03D
:1002DC00064A7B6813441B78012B0CBF01230023B7
:1002EC00DBB218460C37BD4680BC7047700000204E
:1002FC0080B500AF324B1B78002B02D0012B4FD0B6
:10030C005BE00020FFF7BCFF0346002B52D02C4BC8
:10031C0001221A7001F02EFA00F0ACFD294B1B786B
:10032C000133DAB2274B1A70264B1B78072B2CDCC7
:10033C00052B1CDA012B05D0002B26DD023B022BF2
:10034C0023D806E001F068F901F0A0F900F028FFCD
:10035C0025E001F0D5F91B4B1B78023B184600F049
:10036C00B1FE03461946002000F0BCFE17E001F078
:10037C00C7F9144B1B78023B184600F0A3FE03464A
:10038C001946012000F0AEFE09E001F045F901F03C
:10039C007DF900F005FF0B4B01221A7000BF09E03C
:1003AC000020FFF76DFF0346002B05D1044B002204
:1003BC001A7001E000BF00E000BF00BF80BD00BFAD
:1003CC00000000208400002098B500AF634B5B78E0
:1003DC00022B74D0022B00F3B680002B02D0012B21
:1003EC0057D0B0E00120FFF74BFF0346002B00F085
:1003FC00AC805A4B01225A70594B1B78022B14D0EB
:10040C00574B1B78032B10D0554B1B78042B0CD05F
:10041C00534B1B78052B08D0514B1B78062B04D063
:10042C004F4B1B78072B40F092804D4B1B78023BB7
:10043C004C4A82FB0312DB17D41A494B1B78023B44
:10044C00484A82FB0312DB17D31A184600F05CFEF5
:10045C00034601331946204600F044FE404B1B78FE
:10046C00023B404A82FB0312DB17D31A184600F0FA
:10047C004BFE0346632B68DD394B1B78023B394A34
:10048C0082FB0312DB17D31A0021184600F02AFE58
:10049C005BE00120FFF7F4FE0346002B03D12F4B4A
:1004AC0000225A7055E00120FFF706FF0346002B8F
:1004BC004FD02A4B02225A7001F096F949E00120E4
:1004CC00FFF7DEFE0346002B02D1244B00225A70AC
:1004DC0001F0B4F90346002B3DD001F085F9204B17
:1004EC001B78023B1F4A82FB0312DB17D41A1C4BEE
:1004FC001B78023B1B4A82FB0312DB17D31A1846EC
:10050C0000F002FE034601331946204600F0EAFDD6
:10051C00134B1B78023B134A82FB0312DB17D31AD3
:10052C00184600F0F1FD0346632B14DD0C4B1B78D1
:10053C00023B0C4A82FB0312DB17D31A002118462C
:10054C0000F0D0FD07E000BF06E000BF04E000BFF4
:10055C0002E000BF00E000BF00BF98BD000000201B
:10056C00840000205655555598B500AF634B9B78C9
:10057C00022B74D0022B00F3B680002B02D0012B7F
:10058C0057D0B0E00220FFF77BFE0346002B00F0B3
:10059C00AC805A4B01229A70594B1B78022B14D009
:1005AC00574B1B78032B10D0554B1B78042B0CD0BE
:1005BC00534B1B78052B08D0514B1B78062B04D0C2
:1005CC004F4B1B78072B40F092804D4B1B78023B16
:1005DC004C4A82FB0312DB17D41A494B1B78023BA3
:1005EC00484A82FB0312DB17D31A184600F08CFD25
:1005FC000346013B1946204600F074FD404B1B7826
:10060C00023B404A82FB0312DB17D31A184600F058
:10061C007BFD0346002B68DA394B1B78023B394AC9
:10062C0082FB0312DB17D31A6321184600F05AFD24
:10063C005BE00220FFF724FE0346002B03D12F4B77
:10064C0000229A7055E00220FFF736FE0346002B7D
:10065C004FD02A4B02229A7001F0C6F849E00220D2
:10066C00FFF70EFE0346002B02D1244B00229A709A
:10067C0001F0E4F80346002B3DD001F0B5F8204B17
:10068C001B78023B1F4A82FB0312DB17D41A1C4B4C
:10069C001B78023B1B4A82FB0312DB17D31A18464A
:1006AC0000F032FD0346013B1946204600F01AFDCE
:1006BC00134B1B78023B134A82FB0312DB17D31A32
:1006CC00184600F021FD0346002B14DA0C4B1B7866
:1006DC00023B0C4A82FB0312DB17D31A6321184628
:1006EC0000F000FD07E000BF06E000BF04E000BF23
:1006FC0002E000BF00E000BF00BF98BD000000207A
:10070C00840000205655555598B500AF2B4BDB781F
:10071C00002B02D0012B3AD04DE00320FFF7B0FDA7
:10072C000346002B42D0254B0122DA70244B1B7858
:10073C00022B13D0224B1B78032B0FD0204B1B7892
:10074C00042B0BD01E4B1B78052B07D01C4B1B7896
:10075C00062B03D01A4B1B78072B29D1184B1B786F
:10076C009C1E174B1B78023B164A82FB0312DB17AD
:10077C00D31A184600F0C8FC03461946204600F070
:10078C008FFC00224021104801F029FC0EE00320D0
:10079C00FFF776FD0346002B0CD1084B0022DA70D4
:1007AC0001224021084801F01AFC03E000BF02E0DE
:1007BC0000BF00E000BF00BF98BD00BF00000020DC
:1007CC0084000020565555550008014080B400AFF8
:1007DC00024B1B781846BD4680BC70478400002035
:1007EC0080B582B000AF78607B68092B00F2C881BD
:1007FC0001A252F823F000BF2D080008830800085E
:10080C00D90800082F09000885090008DB09000831
:10081C00310A0008870A0008DD0A0008330B0008BB
:10082C0000224FF40071D54801F0D9FB00224FF49F
:10083C008061D24801F0D3FB00224FF40061CF4815
:10084C0001F0CDFB00224FF48051CC4801F0C7FBE6
:10085C0000224FF40051C94801F0C1FB00224FF4B3
:10086C008041C64801F0BBFB01224FF40041C34854
:10087C0001F0B5FBAFE101224FF40071BF4801F06C
:10088C00AEFB00224FF48061BC4801F0A8FB0022B3
:10089C004FF40061B94801F0A2FB01224FF48051E2
:1008AC00B64801F09CFB01224FF40051B34801F013
:1008BC0096FB01224FF48041B04801F090FB0122DD
:1008CC004FF40041AD4801F08AFB84E100224FF463
:1008DC000071AA4801F083FB00224FF48061A74805
:1008EC0001F07DFB01224FF40061A44801F077FB7D
:1008FC0000224FF48051A14801F071FB00224FF40B
:10090C0000519E4801F06BFB01224FF480419B4843
:10091C0001F065FB00224FF40041984801F05FFBA9
:10092C0059E100224FF40071944801F058FB002269
:10093C004FF48061914801F052FB00224FF40061AA
:10094C008E4801F04CFB00224FF480518B4801F093
:10095C0046FB01224FF40051884801F040FB012274
:10096C004FF48041854801F03AFB00224FF40041DE
:10097C00824801F034FB2EE101224FF400717F48D4
:10098C0001F02DFB00224FF480617C4801F027FB25
:10099C0000224FF40061794801F021FB01224FF451
:1009AC008051764801F01BFB01224FF40051734833
:1009BC0001F015FB00224FF48041704801F00FFB51
:1009CC0000224FF400416D4801F009FB03E10022C5
:1009DC004FF40071694801F002FB01224FF4806171
:1009EC00664801F0FCFA00224FF40061634801F004
:1009FC00F6FA00224FF48051604801F0F0FA01221F
:100A0C004FF400515D4801F0EAFA00224FF48041A6
:100A1C005A4801F0E4FA00224FF40041574801F023
:100A2C00DEFAD8E000224FF40071544801F0D7FAF6
:100A3C0001224FF48061514801F0D1FA00224FF4A9
:100A4C0000614E4801F0CBFA00224FF480514B4824
:100A5C0001F0C5FA00224FF40051484801F0BFFAEA
:100A6C0000224FF48041454801F0B9FA00224FF4BE
:100A7C000041424801F0B3FAADE000224FF400719E
:100A8C003E4801F0ACFA00224FF480613B4801F083
:100A9C00A6FA00224FF40061384801F0A0FA0122B6
:100AAC004FF48051354801F09AFA01224FF400516D
:100ABC00324801F094FA01224FF480412F4801F0A2
:100ACC008EFA01224FF400412C4801F088FA82E0A2
:100ADC0000224FF40071294801F081FA00224FF4F2
:100AEC008061264801F07BFA00224FF40061234814
:100AFC0001F075FA00224FF48051204801F06FFA92
:100B0C0000224FF400511D4801F069FA00224FF405
:100B1C0080411A4801F063FA00224FF40041174853
:100B2C0001F05DFA57E000224FF40071134801F018
:100B3C0056FA00224FF48061104801F050FA00225E
:100B4C004FF400610D4801F04AFA00224FF4805135
:100B5C000A4801F044FA01224FF40051074801F011
:100B6C003EFA00224FF48041044801F038FA00228A
:100B7C004FF40041014801F032FA2CE0000801402A
:100B8C0001224FF40071164801F029FA01224FF4AA
:100B9C008061134801F023FA01224FF400611048E0
:100BAC0001F01DFA01224FF480510D4801F017FAA3
:100BBC0001224FF400510A4801F011FA01224FF4BE
:100BCC008041074801F00BFA01224FF40041044820
:100BDC0001F005FA00BF00BF0837BD4680BD00BF5D
:100BEC000008014080B582B000AF78607B68042BB0
:100BFC0000F2DE8001A252F823F000BF1D0C0008A9
:100C0C00610C0008B30C00080F0D0008610D000802
:100C1C00FFF7DCFD03461846FFF7E2FD0122202119
:100C2C00664801F0DCF900224021644801F0D7F954
:100C3C0000228021614801F0D2F900224FF480712A
:100C4C005E4801F0CCF900224FF400715B4801F0D2
:100C5C00C6F9AEE0002000F057FA0346584A82FB72
:100C6C0003129210DB17D31A1846FFF7B9FD0022B6
:100C7C002021524801F0B3F9012240214F4801F0E4
:100C8C00AEF9002280214D4801F0A9F900224FF461
:100C9C0080714A4801F0A3F900224FF400714748D3
:100CAC0001F09DF985E0002000F02EFA0146444B3E
:100CBC0083FB01239A10CB17D21A13469B001344C3
:100CCC005B00CA1A1046FFF78BFD002220213B481F
:100CDC0001F085F900224021384801F080F9012209
:100CEC008021364801F07BF900224FF480713348A3
:100CFC0001F075F900224FF40071304801F06FF9E2
:100D0C0057E0012000F000FA03462D4A82FB031243
:100D1C009210DB17D31A1846FFF762FD0022202130
:100D2C00264801F05CF900224021244801F057F9D3
:100D3C0000228021214801F052F901224FF48071E8
:100D4C001E4801F04CF900224FF400711B4801F0D1
:100D5C0046F92EE0012000F0D7F90146184B83FB31
:100D6C0001239A10CB17D21A13469B0013445B0035
:100D7C00CA1A1046FFF734FD002220210F4801F05B
:100D8C002EF9002240210D4801F029F90022802182
:100D9C000A4801F024F900224FF48071074801F051
:100DAC001EF901224FF40071044801F018F900E01B
:100DBC0000BF00BF0837BD4680BD00BF000C01401E
:100DCC006766666680B500AF294B1B681846FFF74F
:100DDC0009FF00F0F9FC0346002B46D000F0CAFCDA
:100DEC00FFF7F4FC0346072B38DC052B21DA012B2B
:100DFC0005D0002B32DD023B022B2FD80CE01C4B14
:100E0C001B6801331A4A1360194B1B68042B27DD2E
:100E1C00174B00221A6023E0154B1B680133144A50
:100E2C001360134B1B68022B1CDD114B00221A6044
:100E3C0018E00F4B1B68002B03D10D4B03221A60DB
:100E4C0012E00B4B1B680133094A1360084B1B68FB
:100E5C00042B09DD064B00221A6005E000BF04E0FC
:100E6C0000BF02E000BF00E000BF00BF80BD00BFBC
:100E7C008800002080B400AF034B00221A6000BF32
:100E8C00BD4680BC704700BF8800002080B500AF15
:100E9C0000F0A2FD00F014F800F09AF800F04CF805
:100EAC00054801F005FD00222021044801F097F8C7
:100EBC0000F07EF9FCE700BF8C0000200008014028
:100ECC0080B590B000AF07F1180328220021184616
:100EDC0002F082F83B1D00221A605A609A60DA60B8
:100EEC001A610223BB610123BB621023FB62002346
:100EFC007B6307F11803184601F0A2F80346002B98
:100F0C0001D000F0C7F80F237B600023BB600023E7
:100F1C00FB6000233B6100237B613B1D00211846D5
:100F2C0001F010FB0346002B01D000F0B3F800BF1A
:100F3C004037BD4680BD000080B586B000AF07F1DC
:100F4C00080300221A605A609A60DA603B4600225D
:100F5C001A605A601D4B4FF080421A601B4B41F6D1
:100F6C003F725A60194B00229A60184B0922DA60C2
:100F7C00164B00221A61154B00229A61134801F09E
:100F8C0047FC0346002B01D000F084F84FF480534B
:100F9C00BB6007F1080319460C4801F0DDFD034660
:100FAC00002B01D000F076F800233B6000237B601F
:100FBC003B461946054801F0A5FF0346002B01D01E
:100FCC0000F068F800BF1837BD4680BD8C000020CB
:100FDC0080B586B000AF07F1080300221A605A6092
:100FEC009A60DA60284B9B69274A43F004039361AB
:100FFC00254B9B6903F004037B607B68224B9B6948
:10100C00214A43F0080393611F4B9B6903F00803CB
:10101C003B603B6800224FF660611C4800F0DFFF2C
:10102C0000224FF6E0711A4800F0D9FF4FF66063CA
:10103C00BB600123FB6000233B6102237B6107F152
:10104C0008031946114800F037FE0F23BB6000233C
:10105C00FB6001233B6107F1080319460C4800F0C3
:10106C002BFE4FF6E073BB600123FB6000233B615A
:10107C0002237B6107F108031946054800F01CFEAA
:10108C0000BF1837BD4680BD00100240000801406B
:10109C00000C014080B400AF72B600BFFEE7000048
:1010AC0080B483B000AF7860396005497B683A68DA
:1010BC0041F8232000BF0C37BD4680BC704700BFF1
:1010CC000400002080B483B000AF7860044A7B68D1
:1010DC0052F8233018460C37BD4680BC704700BF11
:1010EC000400002080B483B000AF786039600549FB
:1010FC007B683A6841F8232000BF0C37BD4680BCA2
:10110C00704700BF1C00002080B483B000AF786033
:10111C00044A7B6852F8233018460C37BD4680BC15
:10112C00704700BF1C00002080B483B000AF0023C8
:10113C007B600AE0094A7B6852F8232008497B68E7
:10114C0041F823207B6801337B607B68022BF1DD47
:10115C0000BF00BF0C37BD4680BC704704000020A8
:10116C002400002080B483B000AF03237B600AE02E
:10117C00094A7B6852F8232008497B6841F82320F0
:10118C007B6801337B607B68052BF1DD00BF00BF02
:10119C000C37BD4680BC70470400002024000020A2
:1011AC0080B500AFFFF7C0FFFFF7DCFF00BF80BDCD
:1011BC0080B500AFFFF706FEFFF79AF8FFF704F9CA
:1011CC00FFF7D2F9FFF7A0FAFFF700FB0346013B4C
:1011DC00062B00F20E8201A252F823F00512000831
:1011EC00E91300084114000899140008FD140008C4
:1011FC0053150008A9150008BA4B9B68002B22DD7B
:10120C0001224FF48061B84800F0E9FE01224FF44E
:10121C000061B54800F0E3FE00224FF48051B24863
:10122C0000F0DDFEAF4B9B68B04A136000F01EFA75
:10123C000346002B57D000F0EFF9AA4B9B68013BFB
:10124C00A84A93604FE0A74B5B68002B22DD01227C
:10125C004FF48061A44800F0C2FE00224FF40061FC
:10126C00A14800F0BCFE01224FF480519E4800F0D2
:10127C00B6FE9C4B5B689D4A136000F0F7F9034681
:10128C00002B30D000F0C8F9964B5B68013B954AB7
:10129C00536028E0934B1B68002B22DD00224FF497
:1012AC008061914800F09BFE01224FF400618E4852
:1012BC0000F095FE01224FF480518B4800F08FFE18
:1012CC00884B1B68894A136000F0D0F90346002B49
:1012DC0009D000F0A1F9834B1B68013B814A1360D4
:1012EC0001E0FFF721FF7F4BDB68002B23DD0022A1
:1012FC004FF400517C4800F072FE01224FF4804103
:10130C00794800F06CFE01224FF40041764800F061
:10131C0066FE744BDB68754A536000F0E1F90346D6
:10132C00002B00F0688100F0B1F96E4BDB68013BDB
:10133C006C4AD3605FE16B4B5B69002B23DD0122B0
:10134C004FF40051684800F04AFE01224FF48041EE
:10135C00654800F044FE00224FF40041624800F062
:10136C003EFE604B5B69614A536000F0B9F903467D
:10137C00002B00F0408100F089F95A4B5B69013B6E
:10138C00584A536137E1574B1B69002B23DD01226F
:10139C004FF40051544800F022FE00224FF48041DB
:1013AC00514800F01CFE01224FF400414E4800F061
:1013BC0016FE4C4B1B694D4A536000F091F90346E5
:1013CC00002B00F0188100F061F9464B1B69013BC2
:1013DC00444A13610FE1FFF7C5FE0CE101224FF403
:1013EC000061414800F0FBFD01224FF480513E4862
:1013FC0000F0F5FD01224FF400513B4800F0EFFDE9
:10140C0001224FF48041384800F0E9FD01224FF4ED
:10141C000041354800F0E3FD00F09CF90346002B39
:10142C0000F0EB8000F06CF94FF480612E4800F076
:10143C00EEFDE2E001224FF480612B4800F0CFFD7D
:10144C0001224FF48051284800F0C9FD01224FF4CD
:10145C000051254800F0C3FD01224FF48041224881
:10146C0000F0BDFD01224FF400411F4800F0B7FD14
:10147C0000F070F90346002B00F0C18000F040F939
:10148C004FF40061184800F0C2FDB8E001224FF49F
:10149C008061154800F0A3FD01224FF40061124851
:1014AC0000F09DFD01224FF400510F4800F097FD14
:1014BC0001224FF480410C4800F091FD01224FF4C1
:1014CC000041094800F08BFD00F044F90346002B65
:1014DC0000F0978000F014F94FF48051024800F0AE
:1014EC0096FD8EE024000020000C01401C00002022
:1014FC0001224FF48061474800F071FD01224FF446
:10150C000061444800F06BFD01224FF480514148CA
:10151C0000F065FD01224FF480413E4800F05FFD74
:10152C0001224FF400413B4800F059FD00F012F944
:10153C000346002B67D000F0E3F84FF40051354818
:10154C0000F065FD5FE001224FF48061314800F04E
:10155C0046FD01224FF400612E4800F040FD0122AF
:10156C004FF480512B4800F03AFD01224FF400510A
:10157C00284800F034FD01224FF40041254800F0CA
:10158C002EFD00F0E7F80346002B3ED000F0B8F833
:10159C004FF480411F4800F03AFD36E001224FF431
:1015AC0080611C4800F01BFD01224FF400611948BA
:1015BC0000F015FD01224FF48051164800F00FFD8C
:1015CC0001224FF40051134800F009FD01224FF4A1
:1015DC008041104800F003FD00F0BCF80346002BDE
:1015EC0015D000F08DF84FF400410A4800F00FFDC3
:1015FC000DE000BF0CE000BF0AE000BF08E000BF38
:10160C0006E000BF04E000BF02E000BF00E000BF46
:10161C0000BF80BD000C014080B400AF044B6422BD
:10162C001A60044B00221A6000BFBD4680BC704794
:10163C00D4000020D800002080B400AF094B1B68F8
:10164C00002B0BDD074B1B68013B064A1360054B57
:10165C001B68002B02D1044B01221A6000BFBD464F
:10166C0080BC7047D4000020D800002080B400AFAC
:10167C00054B1B68012B0CBF01230023DBB2184662
:10168C00BD4680BC704700BFD800002080B400AFBE
:10169C00044B64221A60044B00221A6000BFBD4642
:1016AC0080BC7047DC000020E000002080B400AF5C
:1016BC00094B1B68002B0BDD074B1B68013B064AD3
:1016CC001360054B1B68002B02D1044B01221A60DE
:1016DC0000BFBD4680BC7047DC000020E00000204D
:1016EC0080B400AF054B1B68012B0CBF01230023FA
:1016FC00DBB21846BD4680BC704700BFE00000203E
:10170C0080B400AF044B32221A60044B00221A60E2
:10171C0000BFBD4680BC7047E4000020E8000020FC
:10172C0080B400AF094B1B68002B0BDD074B1B680B
:10173C00013B064A1360054B1B68002B02D1044B7E
:10174C0001221A6000BFBD4680BC7047E400002037
:10175C00E800002080B400AF054B1B68012B0CBFC8
:10176C0001230023DBB21846BD4680BC704700BF86
:10177C00E800002080B400AF044B64221A60044BD4
:10178C0000221A6000BFBD4680BC7047EC000020F0
:10179C00F000002080B400AF094B1B68002B0BDD60
:1017AC00074B1B68013B064A1360054B1B68002B5B
:1017BC0002D1044B01221A6000BFBD4680BC7047A9
:1017CC00EC000020F000002080B400AF054B1B683B
:1017DC00012B0CBF01230023DBB21846BD4680BC95
:1017EC00704700BFF000002080B400AF044B3222E1
:1017FC001A60044B00221A6000BFBD4680BC7047C3
:10180C00F4000020F800002080B400AF094B1B68E6
:10181C00002B0BDD074B1B68013B064A1360054B85
:10182C001B68002B02D1044B01221A6000BFBD467D
:10183C0080BC7047F4000020F800002080B400AF9A
:10184C00054B1B68012B0CBF01230023DBB2184690
:10185C00BD4680BC704700BFF800002080B582B048
:10186C0000AF7860FFF7E8FEFFF720FFFFF758FFA7
:10187C00FFF790FFFFF7C8FF7B681B68B3F1804F41
:10188C0001D1FEF75DFC00BF0837BD4680BD0000EE
:10189C0080B483B000AF0E4B9B690D4A43F001033B
:1018AC0093610B4B9B6903F001037B607B68084BD6
:1018BC00DB69074A43F08053D361054BDB6903F0C6
:1018CC0080533B603B6800BF0C37BD4680BC704703
:1018DC000010024080B584B000AF78607B681B6854
:1018EC00B3F1804F13D10C4BDB690B4A43F001036E
:1018FC00D361094BDB6903F00103FB60FB68002239
:10190C0000211C2000F0A1F91C2000F0BAF900BF46
:10191C001037BD4680BD00BF0010024080B400AF40
:10192C00FEE780B400AFFEE780B400AFFEE780B402
:10193C0000AFFEE780B400AFFEE780B400AF00BF9D
:10194C00BD4680BC704780B400AF00BFBD4680BCB4
:10195C00704780B400AF00BFBD4680BC704780B5F7
:10196C0000AF00F07FF800BF80BD000080B500AF75
:10197C00024800F0E9FF00BF80BD00BF8C000020D2
:10198C0080B400AF00BFBD4680BC70470C480D4909
:10199C000D4A002302E0D458C4500433C4188C42BE
:1019AC00F9D30A4A0A4C002301E013600432A24224
:1019BC00FBD3FFF7E5FF01F017FBFFF767FA704762
:1019CC0000000020480000207C3000084800002067
:1019DC0000010020FEE7000080B500AF084B1B683B
:1019EC00074A43F010031360032000F023F90F2083
:1019FC0000F008F8FFF74CFF0023184680BD00BF2D
:101A0C000020024080B582B000AF7860124B1A689B
:101A1C00124B1B7819464FF47A73B3FBF1F3B2FBFC
:101A2C00F3F3184600F03BF90346002B01D00123D9
:101A3C000EE07B680F2B0AD8002279684FF0FF303C
:101A4C0000F003F9064A7B681360002300E00123D1
:101A5C0018460837BD4680BD3C00002044000020DD
:101A6C004000002080B400AF054B1B781A46054B94
:101A7C001B681344034A136000BFBD4680BC70470B
:101A8C0044000020FC00002080B400AF024B1B6817
:101A9C001846BD4680BC7047FC00002080B485B061
:101AAC0000AF78607B6803F00703FB600C4BDB68CE
:101ABC00BB60BA684FF6FF031340BB60FB681A02A9
:101ACC00BB68134343F0BF6343F40033BB60044A69
:101ADC00BB68D36000BF1437BD4680BC704700BFE5
:101AEC0000ED00E080B400AF044BDB681B0A03F090
:101AFC0007031846BD4680BC704700BF00ED00E0F0
:101B0C0080B483B000AF0346FB7197F90730002B0C
:101B1C000BDBFB7903F01F02064997F907305B09D1
:101B2C00012000FA02F241F8232000BF0C37BD4619
:101B3C0080BC704700E100E080B483B000AF034686
:101B4C003960FB7197F90730002B0ADB3B68DAB27E
:101B5C000C4997F907301201D2B20B4483F80023D9
:101B6C000AE03B68DAB20849FB7903F00F03043B47
:101B7C001201D2B20B441A7600BF0C37BD4680BCA2
:101B8C00704700BF00E100E000ED00E080B489B0D8
:101B9C0000AFF860B9607A60FB6803F00703FB6183
:101BAC00FB69C3F10703042B28BF0423BB61FB694A
:101BBC000433062B02D9FB69033B00E000237B6155
:101BCC004FF0FF32BB6902FA03F3DA43BB681A40E9
:101BDC007B699A404FF0FF317B6901FA03F3D943DB
:101BEC007B680B40134318462437BD4680BC7047B6
:101BFC0080B582B000AF78607B68013BB3F1807F29
:101C0C0001D301230FE00A4A7B68013B53600F218B
:101C1C004FF0FF30FFF790FF054B00229A60044B0A
:101C2C0007221A60002318460837BD4680BD00BF46
:101C3C0010E000E080B582B000AF78607868FFF704
:101C4C002DFF00BF0837BD4680BD80B586B000AF04
:101C5C000346B9607A60FB7300237B61FFF742FF98
:101C6C0078617A68B9687869FFF790FF024697F94E
:101C7C000F3011461846FFF75FFF00BF1837BD46FF
:101C8C0080BD80B582B000AF0346FB7197F9073079
:101C9C001846FFF735FF00BF0837BD4680BD80B53D
:101CAC0082B000AF78607868FFF7A2FF0346184651
:101CBC000837BD4680BD000080B48BB000AF7860A3
:101CCC00396000237B6200233B6261E101227B6A65
:101CDC0002FA03F3FB613B681B68FA691340BB61B2
:101CEC00BA69FB699A4240F050813B685B68974A3D
:101CFC0093425ED0954A934275D8954A934258D0F8
:101D0C00934A93426FD8934A934252D0914A93424A
:101D1C0069D8914A93424CD08F4A934263D88F4AE8
:101D2C00934246D08D4A93425DD8122B2AD8122B5F
:101D3C0059D801A252F823F0BF1D0008991D0008C4
:101D4C00AB1D0008ED1D0008F31D0008F31D000875
:101D5C00F31D0008F31D0008F31D0008F31D000817
:101D6C00F31D0008F31D0008F31D0008F31D000807
:101D7C00F31D0008F31D0008F31D0008A11D000849
:101D8C00B51D0008764A934213D02CE03B68DB6803
:101D9C003B6229E03B68DB6804333B6224E03B6830
:101DAC00DB6808333B621FE03B68DB680C333B624B
:101DBC001AE03B689B68002B02D104233B6213E0C2
:101DCC003B689B68012B05D108233B627B68FA6951
:101DDC001A6109E008233B627B68FA695A6103E0E7
:101DEC0000233B6200E000BFBB69FF2B01D87B687E
:101DFC0001E07B6804337B61BB69FF2B02D87B6AF3
:101E0C009B0002E07B6A083B9B003B617B691A6884
:101E1C000F213B6901FA03F3DB431A40396A3B6932
:101E2C0001FA03F31A437B691A603B685B6803F0A1
:101E3C008053002B00F0A9804A4B9B69494A43F020
:101E4C0001039361474B9B6903F00103BB60BB68C3
:101E5C00454A7B6A9B08023352F82330FB607B6A4D
:101E6C0003F003039B000F2202FA03F3DB43FA682F
:101E7C001340FB607B683D4A93420DD07B683C4A23
:101E8C00934207D07B683B4A934201D1022304E082
:101E9C00032302E0012300E000237A6A02F003022C
:101EAC0092009340FA681343FB602F497B6A9B08AE
:101EBC000233FA6841F823203B685B6803F48033F3
:101ECC00002B06D02C4B1A682B49BB6913430B60B3
:101EDC0006E0294B1A68BB69DB43274913400B60AA
:101EEC003B685B6803F40033002B06D0224B5A6826
:101EFC002149BB6913434B6006E01F4B5A68BB6911
:101F0C00DB431D4913404B603B685B6803F4801353
:101F1C00002B06D0184B9A681749BB6913438B608A
:101F2C0006E0154B9A68BB69DB43134913408B6081
:101F3C003B685B6803F40013002B1FD00E4BDA6870
:101F4C000D49BB691343CB601FE000BF000032108A
:101F5C0000003110000022100000211000001210AF
:101F6C000000111000100240000001400008014068
:101F7C00000C014000100140000401400B4BDA68DA
:101F8C00BB69DB4309491340CB607B6A01337B623D
:101F9C003B681A687B6A22FA03F3002B7FF496AE37
:101FAC0000BF00BF2C37BD4680BC70470004014009
:101FBC0080B485B000AF78600B467B807B689A68F4
:101FCC007B881340002B02D00123FB7301E000231C
:101FDC00FB73FB7B18461437BD4680BC704780B43E
:101FEC0083B000AF78600B467B8013467B707B78A8
:101FFC00002B03D07A887B681A6103E07B881A0473
:10200C007B681A6100BF0C37BD4680BC704780B43A
:10201C0085B000AF78600B467B807B68DB68FB602B
:10202C007A88FB6813401A04FB68D9437B880B4001
:10203C001A437B681A6100BF1437BD4680BC7047D9
:10204C0080B586B000AF78607B68002B01D101238E
:10205C0072E27B681B6803F00103002B00F08780A1
:10206C00924B5B6803F00C03042B0CD08F4B5B681A
:10207C0003F00C03082B12D18C4B5B6803F48033F8
:10208C00B3F5803F0BD1894B1B6803F40033002B55
:10209C006CD07B685B68002B68D101234CE27B68B9
:1020AC005B68B3F5803F06D1804B1B687F4A43F4D5
:1020BC00803313602EE07B685B68002B0CD17B4B6C
:1020CC001B687A4A23F480331360784B1B68774A79
:1020DC0023F4802313601DE07B685B68B3F5A02FAD
:1020EC000CD1724B1B68714A43F4802313606F4B05
:1020FC001B686E4A43F4803313600BE06B4B1B6818
:10210C006A4A23F480331360684B1B68674A23F4D4
:10211C00802313607B685B68002B13D0FFF7B4FC43
:10212C00386108E0FFF7B0FC02463B69D31A642B18
:10213C0001D9032300E25D4B1B6803F40033002B31
:10214C00F0D014E0FFF7A0FC386108E0FFF79CFC2E
:10215C0002463B69D31A642B01D90323ECE1534BA0
:10216C001B6803F40033002BF0D100E000BF7B6848
:10217C001B6803F00203002B63D04C4B5B6803F02D
:10218C000C03002B0BD0494B5B6803F00C03082BA2
:10219C001CD1464B5B6803F48033002B16D1434BA8
:1021AC001B6803F00203002B05D07B681B69012B15
:1021BC0001D00123C0E13D4B1B6823F0F8027B6882
:1021CC005B69DB00394913430B603AE07B681B69A0
:1021DC00002B20D0364B01221A60FFF755FC3861DA
:1021EC0008E0FFF751FC02463B69D31A022B01D9D8
:1021FC000323A1E12D4B1B6803F00203002BF0D04D
:10220C002A4B1B6823F0F8027B685B69DB002749CB
:10221C0013430B6015E0264B00221A60FFF734FCC9
:10222C00386108E0FFF730FC02463B69D31A022BF9
:10223C0001D9032380E11D4B1B6803F00203002B23
:10224C00F0D17B681B6803F00803002B3AD07B6845
:10225C009B69002B19D0174B01221A60FFF714FC55
:10226C00386108E0FFF710FC02463B69D31A022BD9
:10227C0001D9032360E10D4B5B6A03F00203002BD1
:10228C00F0D0012000F0A6FA1CE00A4B00221A60E4
:10229C00FFF7FAFB38610FE0FFF7F6FB02463B69EC
:1022AC00D31A022B08D9032346E100BF00100240C9
:1022BC000000424280044242924B5B6A03F00203EC
:1022CC00002BE9D17B681B6803F00403002B00F0A2
:1022DC00A6800023FB758B4BDB6903F08053002B2E
:1022EC000DD1884BDB69874A43F08053D361854B12
:1022FC00DB6903F08053BB60BB680123FB75824B29
:10230C001B6803F48073002B18D17F4B1B687E4A2B
:10231C0043F480731360FFF7B7FB386108E0FFF7F5
:10232C00B3FB02463B69D31A642B01D9032303E1A7
:10233C00754B1B6803F48073002BF0D07B68DB6853
:10234C00012B06D16F4B1B6A6E4A43F001031362DB
:10235C002DE07B68DB68002B0CD16A4B1B6A694A49
:10236C0023F001031362674B1B6A664A23F00403D4
:10237C0013621CE07B68DB68052B0CD1614B1B6A7C
:10238C00604A43F0040313625E4B1B6A5D4A43F0E0
:10239C00010313620BE05B4B1B6A5A4A23F00103E7
:1023AC001362584B1B6A574A23F0040313627B6871
:1023BC00DB68002B15D0FFF767FB38610AE0FFF7ED
:1023CC0063FB02463B69D31A41F28832934201D92E
:1023DC000323B1E04B4B1B6A03F00203002BEED03E
:1023EC0014E0FFF751FB38610AE0FFF74DFB0246A2
:1023FC003B69D31A41F28832934201D903239BE003
:10240C00404B1B6A03F00203002BEED1FB7D012B2A
:10241C0005D13C4BDB693B4A23F08053D3617B688D
:10242C00DB69002B00F08780364B5B6803F00C03F4
:10243C00082B61D07B68DB69022B46D1334B002221
:10244C001A60FFF721FB386108E0FFF71DFB02461D
:10245C003B69D31A022B01D903236DE0294B1B686E
:10246C0003F00073002BF0D17B681B6AB3F5803F3F
:10247C0008D1244B5B6823F400327B689B682149AC
:10248C0013434B601F4B5B6823F474127B68196A0F
:10249C007B685B6A0B431B4913434B601B4B01224C
:1024AC001A60FFF7F1FA386108E0FFF7EDFA02461F
:1024BC003B69D31A022B01D903233DE0114B1B6856
:1024CC0003F00073002BF0D035E0104B00221A60A3
:1024DC00FFF7DAFA386108E0FFF7D6FA02463B69F3
:1024EC00D31A022B01D9032326E0064B1B6803F0F9
:1024FC000073002BF0D11EE07B68DB69012B07D148
:10250C00012319E0001002400070004060004242BC
:10251C000B4B5B68FB60FB6803F480327B681B6AC7
:10252C009A4206D1FB6803F470127B685B6A9A428C
:10253C0001D0012300E0002318461837BD4680BDAA
:10254C000010024080B584B000AF786039607B68C1
:10255C00002B01D10123D0E06A4B1B6803F0070369
:10256C003A689A4210D9674B1B6823F007026549F9
:10257C003B6813430B60634B1B6803F007033A681B
:10258C009A4201D00123B8E07B681B6803F0020378
:10259C00002B20D07B681B6803F00403002B05D0B4
:1025AC00594B5B68584A43F4E06353607B681B6883
:1025BC0003F00803002B05D0534B5B68524A43F4DD
:1025CC0060535360504B5B6823F0F0027B689B6850
:1025DC004D4913434B607B681B6803F00103002BD0
:1025EC0040D07B685B68012B07D1474B1B6803F419
:1025FC000033002B15D101237FE07B685B68022B35
:10260C0007D1414B1B6803F00073002B09D1012348
:10261C0073E03D4B1B6803F00203002B01D1012337
:10262C006BE0394B5B6823F003027B685B683649CF
:10263C0013434B60FFF728FAF8600AE0FFF724FA1F
:10264C000246FB68D31A41F28832934201D9032324
:10265C0053E02D4B5B6803F00C027B685B689B00BE
:10266C009A42EBD1274B1B6803F007033A689A4256
:10267C0010D2244B1B6823F0070222493B681343FA
:10268C000B60204B1B6803F007033A689A4201D099
:10269C00012332E07B681B6803F00403002B08D095
:1026AC00194B5B6823F4E0627B68DB6816491343C3
:1026BC004B607B681B6803F00803002B09D0124B9E
:1026CC005B6823F460527B681B69DB000E49134383
:1026DC004B6000F021F802460B4B5B681B0903F0C2
:1026EC000F030A49CB5C22FA03F3094A1360094B26
:1026FC001B681846FFF786F9002318461037BD46AD
:10270C0080BD00BF00200240001002406430000871
:10271C003C0000204000002090B48AB000AF294B50
:10272C003C1D0FCB84E80F0040F201233B800023BB
:10273C00FB610023BB6100237B6200237B610023D0
:10274C003B62214B5B68FB61FB6903F00C03042BC0
:10275C0002D0082B03D02BE01C4B3B622BE0FB6917
:10276C009B0C03F00F0328333B4413F8243C7B6190
:10277C00FB6903F48033002B12D0134B5B685B0CAA
:10278C0003F0010328333B4413F8283CBB617B69FD
:10279C000E4A03FB02F2BB69B2FBF3F37B6204E06B
:1027AC007B690B4A02FB03F37B627B6A3B6202E0B0
:1027BC00064B3B6200BF3B6A18462837BD4690BCAF
:1027CC00704700BF543000080010024000127A001D
:1027DC0000093D0080B485B000AF78600A4B1B68DF
:1027EC000A4AA2FB03235B0A7A6802FB03F3FB6031
:1027FC0000BFFB685A1EFA60002BF9D100BF00BF66
:10280C001437BD4680BC70473C000020D34D62108D
:10281C0080B582B000AF78607B68002B01D10123BA
:10282C0041E07B6893F83D30DBB2002B06D17B682E
:10283C00002283F83C207868FFF74CF87B68022272
:10284C0083F83D207B681A687B6804331946104670
:10285C0000F06AFA7B68012283F846207B6801222B
:10286C0083F83E207B68012283F83F207B6801229D
:10287C0083F840207B68012283F841207B68012289
:10288C0083F842207B68012283F843207B68012275
:10289C0083F844207B68012283F845207B68012261
:1028AC0083F83D20002318460837BD4680BD000044
:1028BC0080B485B000AF78607B6893F83D30DBB2B4
:1028CC00012B01D0012335E07B68022283F83D20E7
:1028DC007B681B68DA687B681B6842F00102DA606F
:1028EC007B681B68164A934209D07B681B68B3F15E
:1028FC00804F04D07B681B68124A934211D17B68CD
:10290C001B689B6803F00703FB60FB68062B10D069
:10291C007B681B681A687B681B6842F001021A60AE
:10292C0007E07B681B681A687B681B6842F0010231
:10293C001A60002318461437BD4680BC704700BF90
:10294C00002C01400004004080B582B000AF7860DC
:10295C007B681B681B6903F00203022B22D17B6886
:10296C001B68DB6803F00203022B1BD17B681B681E
:10297C006FF002021A617B6801221A777B681B6870
:10298C009B6903F00303002B03D0786800F0B1F9C6
:10299C0005E0786800F0A4F9786800F0B3F97B687A
:1029AC0000221A777B681B681B6903F00403042B55
:1029BC0022D17B681B68DB6803F00403042B1BD15A
:1029CC007B681B686FF004021A617B6802221A771D
:1029DC007B681B689B6903F44073002B03D07868F9
:1029EC0000F087F905E0786800F07AF9786800F073
:1029FC0089F97B6800221A777B681B681B6903F0D6
:102A0C000803082B22D17B681B68DB6803F00803E2
:102A1C00082B1BD17B681B686FF008021A617B685E
:102A2C0004221A777B681B68DB6903F00303002B15
:102A3C0003D0786800F05DF905E0786800F050F993
:102A4C00786800F05FF97B6800221A777B681B6856
:102A5C001B6903F01003102B22D17B681B68DB6809
:102A6C0003F01003102B1BD17B681B686FF0100256
:102A7C001A617B6808221A777B681B68DB6903F490
:102A8C004073002B03D0786800F033F905E07868C8
:102A9C0000F026F9786800F035F97B6800221A7787
:102AAC007B681B681B6903F00103012B0ED17B684B
:102ABC001B68DB6803F00103012B07D17B681B68E3
:102ACC006FF001021A617868FEF7C8FE7B681B681C
:102ADC001B6903F08003802B0ED17B681B68DB68BD
:102AEC0003F08003802B07D17B681B686FF080029A
:102AFC001A61786800F067FA7B681B681B6903F041
:102B0C004003402B0ED17B681B68DB6803F040034D
:102B1C00402B07D17B681B686FF040021A61786804
:102B2C0000F0F9F87B681B681B6903F02003202B6D
:102B3C000ED17B681B68DB6803F02003202B07D1C8
:102B4C007B681B686FF020021A61786800F032FA1B
:102B5C0000BF0837BD4680BD80B584B000AF78603B
:102B6C0039607B6893F83C30012B01D10223B3E030
:102B7C007B68012283F83C207B68022283F83D208D
:102B8C007B681B689B68FB60FB6823F07703FB602A
:102B9C00FB6823F47F43FB607B681B68FA689A60D0
:102BAC003B681B68B3F5005F3ED0B3F5005F00F2E5
:102BBC008780B3F5805F00F08580B3F5805F7FD8A8
:102BCC00702B1AD0702B7BD8602B50D0602B77D801
:102BDC00502B3CD0502B73D8402B58D0402B6FD857
:102BEC00302B64D0302B6BD8202B60D0202B67D8A7
:102BFC00002B5CD0102B5AD062E07B6818683B68C5
:102C0C0099683B685A683B68DB6800F05CF97B6844
:102C1C001B689B68FB60FB6843F07703FB607B6879
:102C2C001B68FA689A604EE07B6818683B68996884
:102C3C003B685A683B68DB6800F045F97B681B68A9
:102C4C009A687B681B6842F480429A603BE07B6820
:102C5C0018683B6859683B68DB681A4600F0BCF89A
:102C6C007B681B685021184600F013F92BE07B6839
:102C7C0018683B6859683B68DB681A4600F0DAF85C
:102C8C007B681B686021184600F003F91BE07B6829
:102C9C0018683B6859683B68DB681A4600F09CF87A
:102CAC007B681B684021184600F0F3F80BE07B684A
:102CBC001A683B681B681946104600F0EAF802E0F7
:102CCC0000BF00E000BF7B68012283F83D207B68D9
:102CDC00002283F83C20002318461037BD4680BDE7
:102CEC0080B483B000AF786000BF0C37BD4680BCA9
:102CFC00704780B483B000AF786000BF0C37BD461E
:102D0C0080BC704780B483B000AF786000BF0C37D4
:102D1C00BD4680BC704780B483B000AF786000BF04
:102D2C000C37BD4680BC704780B485B000AF78606E
:102D3C0039607B681B68FB607B68254A934207D02F
:102D4C007B68B3F1804F03D07B68224A934208D151
:102D5C00FB6823F07003FB603B685B68FA68134305
:102D6C00FB607B681A4A934207D07B68B3F1804FB3
:102D7C0003D07B68174A934208D1FB6823F4407355
:102D8C00FB603B68DB68FA681343FB60FB6823F06D
:102D9C0080023B685B691343FB607B68FA681A60CE
:102DAC003B689A687B68DA623B681A687B689A624F
:102DBC007B68074A934203D13B681A697B681A63A4
:102DCC007B6801225A6100BF1437BD4680BC704736
:102DDC00002C01400004004080B487B000AFF860C4
:102DEC00B9607A60FB681B6A7B61FB681B6A23F025
:102DFC000102FB681A62FB689B693B613B6923F02B
:102E0C00F0033B617B681B013A6913433B617B69AF
:102E1C0023F00A037B617A69BB6813437B61FB680F
:102E2C003A699A61FB687A691A6200BF1C37BD4621
:102E3C0080BC704780B487B000AFF860B9607A602E
:102E4C00FB681B6A23F01002FB681A62FB689B6923
:102E5C007B61FB681B6A3B617B6923F470437B617C
:102E6C007B681B037A6913437B613B6923F0A003E6
:102E7C003B61BB681B013A6913433B61FB687A6990
:102E8C009A61FB683A691A6200BF1C37BD4680BC68
:102E9C00704780B485B000AF786039607B689B6800
:102EAC00FB60FB6823F07003FB603A68FB6813431C
:102EBC0043F00703FB607B68FA689A6000BF143725
:102ECC00BD4680BC704780B487B000AFF860B96075
:102EDC007A603B60FB689B687B617B6923F47F4372
:102EEC007B613B681A027B681A43BB6813437A699F
:102EFC0013437B61FB687A699A6000BF1C37BD463F
:102F0C0080BC704780B485B000AF786039607B6856
:102F1C0093F83C30012B01D1022341E07B68012264
:102F2C0083F83C207B68022283F83D207B681B6879
:102F3C005B68FB607B681B689B68BB60FB6823F06D
:102F4C007003FB603B681B68FA681343FB607B688B
:102F5C001B68FA685A607B681B68144A934209D054
:102F6C007B681B68B3F1804F04D07B681B68104AE8
:102F7C0093420CD1BB6823F08003BB603B685B6859
:102F8C00BA681343BB607B681B68BA689A607B683D
:102F9C00012283F83D207B68002283F83C2000232B
:102FAC0018461437BD4680BC704700BF002C01404A
:102FBC000004004080B483B000AF786000BF0C37D1
:102FCC00BD4680BC704780B483B000AF786000BF52
:102FDC000C37BD4680BC704703460244934200D177
:102FEC00704703F8011BF9E770B500260C4D0D4C2A
:102FFC00641BA410A64209D100F01AF800260A4D51
:10300C000A4C641BA410A64205D170BD55F8043BB4
:10301C0098470136EEE755F8043B98470136F2E73E
:10302C0074300008743000087430000878300008E0
:10303C00F8B500BFF8BC08BC9E467047F8B500BF99
:08304C00F8BC08BC9E46704769
:1030540002030405060708090A0B0C0D0E0F1010D5
:103064000000000000000000010203040607080934
:04307400310100081E
:043078000D0100083E
:10307C000101010105000000050000000500000031
:10308C000500000005000000050000000100000024
:10309C000100000005000000050000000500000014
:1030AC000500000005000000050000000024F400ED
:0830BC001000000001000000FB
:04000005080019993D
:00000001FF
