:020000040800F2
:1000000000280020A1110008311100083711000854
:100010003D110008431100084911000800000000CC
:100020000000000000000000000000004F11000868
:100030005B11000800000000671100087311000840
:10004000E9110008E9110008E9110008E9110008A8
:10005000E9110008E9110008E9110008E911000898
:10006000E9110008E9110008E9110008E911000888
:10007000E9110008E9110008E9110008E911000878
:10008000E9110008E9110008E9110008E911000868
:10009000E9110008E9110008E9110008E911000858
:1000A000E9110008E9110008E9110008E911000848
:1000B00081110008E911000800000000E9110008A2
:1000C000E91100080000000000000000E91100082C
:1000D00000000000E9110008E9110008000000001C
:1000E000E9110008E9110008E9110008000000000A
:1000F0000000000000000000000000000000000000
:0C01000000000000000000005FF808F1A3
:10010C0010B5054C237833B9044B13B10448AFF345
:10011C0000800123237010BD0C00002000000000A3
:10012C000028000808B5034B1BB103490348AFF383
:10013C00008008BD0000000010000020002800080E
:10014C0080B483B000AF78600A227B6893FBF2F333
:10015C00044A1360044B00221A6000BF0C37BD46E2
:10016C0080BC7047700000207400002080B400AF89
:10017C00094B1B68002B0BDD074B1B68013B064A28
:10018C001360054B1B68002B02D1044B01221A6033
:10019C0000BFBD4680BC704770000020740000207A
:1001AC0080B483B000AF78600A227B6893FBF2F3D3
:1001BC00044A1360044B00221A6000BF0C37BD4682
:1001CC0080BC7047780000207C00002080B400AF19
:1001DC00094B1B68002B0BDD074B1B68013B064AC8
:1001EC001360054B1B68002B02D1044B01221A60D3
:1001FC0000BFBD4680BC7047780000207C0000200A
:10020C0080B582B000AF78607B68072B00F25C8110
:10021C0001A252F823F000BF450200089702000823
:10022C00E90200083B0300088D030008DF03000807
:10023C00310400088304000801220121B94801F0AF
:10024C00BBFA00220221B74801F0B6FA00220421C1
:10025C00B44801F0B1FA00220821B24801F0ACFA1E
:10026C0000221021AF4801F0A7FA00222021AD484E
:10027C0001F0A2FA00224021AA4801F09DFA0022C6
:10028C008021A84801F098FA47E100220121A548F5
:10029C0001F092FA01220221A24801F08DFA00220B
:1002AC000421A04801F088FA002208219D4801F0A1
:1002BC0083FA002210219B4801F07EFA00222021B3
:1002CC00984801F079FA00224021964801F074FA1E
:1002DC0000228021934801F06FFA1EE100220121D7
:1002EC00904801F069FA002202218E4801F064FA6C
:1002FC00012204218B4801F05FFA00220821894871
:10030C0001F05AFA00221021864801F055FA002219
:10031C002021844801F050FA00224021814801F04C
:10032C004BFA002280217F4801F046FAF5E00022CA
:10033C0001217C4801F040FA00220221794801F0A9
:10034C003BFA00220421774801F036FA01220821F9
:10035C00744801F031FA00221021724801F02CFA95
:10036C00002220216F4801F027FA002240216D481D
:10037C0001F022FA002280216A4801F01DFACCE03B
:10038C0000220121674801F017FA0022022165487A
:10039C0001F012FA00220421624801F00DFA002249
:1003AC000821604801F008FA012210215D4801F093
:1003BC0003FA002220215B4801F0FEF900224021C3
:1003CC00584801F0F9F900228021564801F0F4F95F
:1003DC00A3E000220121534801F0EEF90022022192
:1003EC00504801F0E9F9002204214E4801F0E4F9EB
:1003FC00002208214B4801F0DFF900221021494866
:10040C0001F0DAF901222021464801F0D5F9002249
:10041C004021444801F0D0F900228021414801F0EC
:10042C00CBF97AE0002201213E4801F0C5F9002207
:10043C0002213C4801F0C0F900220421394801F0A6
:10044C00BBF900220821374801F0B6F9002210212F
:10045C00344801F0B1F900222021324801F0ACF906
:10046C00012240212F4801F0A7F9002280212D48BC
:10047C0001F0A2F951E0002201212A4801F09CF977
:10048C0000220221274801F097F900220421254877
:10049C0001F092F900220821224801F08DF9002286
:1004AC001021204801F088F9002220211D4801F07C
:1004BC0083F9002240211B4801F07EF901228021A2
:1004CC00184801F079F928E000220121154801F0C3
:1004DC0073F900220221134801F06EF90022042165
:1004EC00104801F069F9002208210E4801F064F966
:1004FC00002210210B4801F05FF90022202109484D
:10050C0001F05AF900224021064801F055F9002269
:10051C008021044801F050F900BF00BF0837BD46E8
:10052C0080BD00BF000C014080B582B000AF786088
:10053C00524A7B6852F82330012B06D101224FF42A
:10054C0080714F4801F038F905E000224FF48071BA
:10055C004B4801F031F9494A7B68083352F8233093
:10056C00012B06D101224FF40071454801F024F90A
:10057C0005E000224FF40071414801F01DF93F4A9B
:10058C007B68103352F82330012B06D101224FF433
:10059C0080613B4801F010F905E000224FF48061C6
:1005AC00374801F009F9354A7B68183352F8233083
:1005BC00012B06D101224FF40061314801F0FCF807
:1005CC0005E000224FF400612D4801F0F5F82B4AAC
:1005DC007B68203352F82330012B06D101224FF4D3
:1005EC008051274801F0E8F805E000224FF48051D3
:1005FC00234801F0E1F8214A7B68283352F8233074
:10060C00012B06D101224FF400511D4801F0D4F802
:10061C0005E000224FF40051194801F0CDF8174ABB
:10062C007B68303352F82330012B06D101224FF472
:10063C008041134801F0C0F805E000224FF48041DE
:10064C000F4801F0B9F80D4A7B68383352F8233063
:10065C00012B06D101224FF40041094801F0ACF8FE
:10066C0005E000224FF40041054801F0A5F8786838
:10067C00FFF7C6FD00BF0837BD4680BD84000020D3
:10068C00000C014080B485B000AF78600023FB60A3
:10069C0019E00023BB6010E0FB685B017A6813442F
:1006AC00BA6853F822200C48FB68D900BB680B448D
:1006BC0040F82320BB680133BB60BB68072BEBDD24
:1006CC00FB680133FB60FB68072BE2DD00BF00BF5A
:1006DC001437BD4680BC70478400002080B5C2B082
:1006EC0000AF024607F58473A3F201131A7007F5E5
:1006FC008473A3F201131B78303B2A2B00F2148372
:10070C0001A252F823F000BFC1070008E50700085A
:10071C00090800082D080008510800087508000891
:10072C0099080008BD080008E10800080509000840
:10073C00350D0008350D0008350D0008350D000885
:10074C00350D0008350D0008350D00082909000885
:10075C004D0900087109000895090008B90900083D
:10076C00DD090008010A0008250A0008490A0008EA
:10077C006D0A0008910A0008B50A0008D90A000899
:10078C00FD0A0008210B0008A90B0008CD0B00087E
:10079C00F10B0008150C0008390C00085D0C000862
:1007AC00810C0008A50C0008C90C0008ED0C000811
:1007BC00110D000807F58473A3F58073DE4A184603
:1007CC0011464FF480731A4602F006F807F108033D
:1007DC001846FFF757FFA8E207F58473A3F580735B
:1007EC00D64A184611464FF480731A4601F0F4FFAE
:1007FC0007F108031846FFF745FF96E207F58473E7
:10080C00A3F58073CE4A184611464FF480731A46EE
:10081C0001F0E2FF07F108031846FFF733FF84E20B
:10082C0007F58473A3F58073C64A184611464FF436
:10083C0080731A4601F0D0FF07F108031846FFF742
:10084C0021FF72E207F58473A3F58073BE4A184644
:10085C0011464FF480731A4601F0BEFF07F10803EE
:10086C001846FFF70FFF60E207F58473A3F580735A
:10087C00B64A184611464FF480731A4601F0ACFF85
:10088C0007F108031846FFF7FDFE4EE207F58473E7
:10089C00A3F58073AE4A184611464FF480731A467E
:1008AC0001F09AFF07F108031846FFF7EBFE3CE254
:1008BC0007F58473A3F58073A64A184611464FF4C6
:1008CC0080731A4601F088FF07F108031846FFF7FA
:1008DC00D9FE2AE207F58473A3F580739E4A184665
:1008EC0011464FF480731A4601F076FF07F10803A6
:1008FC001846FFF7C7FE18E207F58473A3F580735B
:10090C00964A184611464FF480731A4601F064FF5C
:10091C0007F108031846FFF7B5FE06E207F58473E6
:10092C00A3F580738E4A184611464FF480731A460D
:10093C0001F052FF07F108031846FFF7A3FEF4E19C
:10094C0007F58473A3F58073864A184611464FF455
:10095C0080731A4601F040FF07F108031846FFF7B1
:10096C0091FEE2E107F58473A3F580737E4A184685
:10097C0011464FF480731A4601F02EFF07F108035D
:10098C001846FFF77FFED0E107F58473A3F580735B
:10099C00764A184611464FF480731A4601F01CFF34
:1009AC0007F108031846FFF76DFEBEE107F58473E7
:1009BC00A3F580736E4A184611464FF480731A469D
:1009CC0001F00AFF07F108031846FFF75BFEACE1E4
:1009DC0007F58473A3F58073664A184611464FF4E5
:1009EC0080731A4601F0F8FE07F108031846FFF76A
:1009FC0049FE9AE107F58473A3F580735E4A1846A5
:100A0C0011464FF480731A4601F0E6FE07F1080315
:100A1C001846FFF737FE88E107F58473A3F580735A
:100A2C00564A184611464FF480731A4601F0D4FE0C
:100A3C0007F108031846FFF725FE76E107F58473E6
:100A4C00A3F580734E4A184611464FF480731A462C
:100A5C0001F0C2FE07F108031846FFF713FE64E12C
:100A6C0007F58473A3F58073464A184611464FF474
:100A7C0080731A4601F0B0FE07F108031846FFF721
:100A8C0001FE52E107F58473A3F580733E4A1846C4
:100A9C0011464FF480731A4601F09EFE07F10803CD
:100AAC001846FFF7EFFD40E107F58473A3F580735B
:100ABC00364A184611464FF480731A4601F08CFEE4
:100ACC0007F108031846FFF7DDFD2EE107F58473E7
:100ADC00A3F580732E4A184611464FF480731A46BC
:100AEC0001F07AFE07F108031846FFF7CBFD1CE175
:100AFC0007F58473A3F58073264A184611464FF404
:100B0C0080731A4601F068FE07F108031846FFF7D8
:100B1C00B9FD0AE107F58473A3F580731E4A1846E4
:100B2C0011464FF480731A4601F056FE07F1080384
:100B3C001846FFF7A7FDF8E0182800081829000848
:100B4C00182A0008182B0008182C0008182D00086B
:100B5C00182E0008182F000818300008183100084B
:100B6C00183200081833000818340008183500082B
:100B7C00183600081837000818380008183900080B
:100B8C00183A0008183B0008183C0008183D0008EB
:100B9C00183E0008183F00081840000807F5847339
:100BAC00A3F58073634A184611464FF480731A46B6
:100BBC0001F012FE07F108031846FFF763FDB4E0DD
:100BCC0007F58473A3F580735B4A184611464FF4FE
:100BDC0080731A4601F000FE07F108031846FFF770
:100BEC0051FDA2E007F58473A3F58073534A1846B0
:100BFC0011464FF480731A4601F0EEFD07F108031D
:100C0C001846FFF73FFD90E007F58473A3F580735A
:100C1C004B4A184611464FF480731A4601F0DCFD1E
:100C2C0007F108031846FFF72DFD7EE007F58473E6
:100C3C00A3F58073434A184611464FF480731A4645
:100C4C0001F0CAFD07F108031846FFF71BFD6CE025
:100C5C0007F58473A3F580733B4A184611464FF48D
:100C6C0080731A4601F0B8FD07F108031846FFF728
:100C7C0009FD5AE007F58473A3F58073334A1846CF
:100C8C0011464FF480731A4601F0A6FD07F10803D4
:100C9C001846FFF7F7FC48E007F58473A3F580735B
:100CAC002B4A184611464FF480731A4601F094FDF6
:100CBC0007F108031846FFF7E5FC36E007F58473E7
:100CCC00A3F58073234A184611464FF480731A46D5
:100CDC0001F082FD07F108031846FFF7D3FC24E06E
:100CEC0007F58473A3F580731B4A184611464FF41D
:100CFC0080731A4601F070FD07F108031846FFF7E0
:100D0C00C1FC12E007F58473A3F58073134A1846EF
:100D1C0011464FF480731A4601F05EFD07F108038B
:100D2C001846FFF7AFFC00E000BF00BF07F5847763
:100D3C00BD4680BD18410008184200081843000841
:100D4C001844000818450008184600081847000801
:100D5C001848000818490008184A0008184B0008E1
:100D6C00B0B48DB000AF2C4B3C461D460FCD0FC41C
:100D7C0095E80F0084E80F000023FB620EE0274A81
:100D8C00FB6A5B0113441C331A68FB6A9B0030330B
:100D9C003B4443F8302CFB6A0133FB62FB6A072BA4
:100DAC00EDDD0023BB621AE007237B6211E07B6A56
:100DBC00013B1A49BA6AD200134451F82320174850
:100DCC00BB6AD9007B6A0B4440F823207B6A013B49
:100DDC007B627B6A002BEADCBB6A0133BB62BB6AB9
:100DEC00072BE1DD00233B620DE03B6A9B003033B7
:100DFC003B4453F8302C09493B6A5B010B441A60A5
:100E0C003B6A01333B623B6A072BEEDD00BF00BF40
:100E1C003437BD46B0BC7047184C00088400002025
:100E2C0080B500AF00F0DCF900F048F800F0CEF827
:100E3C0000F080F81C4801F00FF9002220211B481B
:100E4C0000F0BAFC64231846FFF77AF94FF4C86334
:100E5C001846FFF7A5F94820FFF740FC144B1B6818
:100E6C001846FFF761FB134B1B68012B10D1104B7D
:100E7C001B6801330E4A13600D4B1B68082293420A
:100E8C0002DB0B4B00221A6064231846FFF758F95B
:100E9C00094B1B68012BE1D1FFF762FF4FF4C863CC
:100EAC001846FFF77DF9D9E728000020000801401B
:100EBC0080000020740000207C00002080B590B0E1
:100ECC0000AF07F1180328220021184601F058FC46
:100EDC003B1D00221A605A609A60DA601A61022384
:100EEC00BB610123BB621023FB6200237B6307F110
:100EFC001803184600F078FC0346002B01D000F0D4
:100F0C00C5F80F237B600023BB600023FB6000232C
:100F1C003B6100237B613B1D0021184600F0E6FE7F
:100F2C000346002B01D000F0B1F800BF4037BD469E
:100F3C0080BD000080B586B000AF07F10803002229
:100F4C001A605A609A60DA603B4600221A605A6056
:100F5C001D4B4FF080421A601B4B41F63F725A609A
:100F6C00194B00229A60184B0922DA60164B0022AA
:100F7C001A61154B00229A61134801F01DF80346C3
:100F8C00002B01D000F082F84FF48053BB6007F1C6
:100F9C00080319460C4801F0B3F90346002B01D0A5
:100FAC0000F074F800233B6000237B603B4619463D
:100FBC00054801F07BFB0346002B01D000F066F8DE
:100FCC0000BF1837BD4680BD2800002080B586B014
:100FDC0000AF07F1080300221A605A609A60DA60C9
:100FEC00214B9B69204A43F0040393611E4B9B6980
:100FFC0003F004037B607B681B4B9B691A4A43F02C
:10100C0008039361184B9B6903F008033B603B6832
:10101C0000222021154800F0CFFB00224FF6FF7173
:10102C00134800F0C9FB2023BB600123FB600023A5
:10103C003B6102237B6107F1080319460B4800F062
:10104C003FFA4FF6FF73BB600123FB6000233B614B
:10105C0002237B6107F108031946054800F030FABA
:10106C0000BF1837BD4680BD00100240000801408B
:10107C00000C014080B582B000AF7860FFF776F8C5
:10108C00FFF7A4F800BF0837BD4680BD80B400AFA1
:10109C0072B600BFFEE7000080B483B000AF0E4B09
:1010AC009B690D4A43F0010393610B4B9B6903F061
:1010BC0001037B607B68084BDB69074A43F0805374
:1010CC00D361054BDB6903F080533B603B6800BF89
:1010DC000C37BD4680BC70470010024080B584B010
:1010EC0000AF78607B681B68B3F1804F13D10C4B59
:1010FC00DB690B4A43F00103D361094BDB6903F055
:10110C000103FB60FB68002200211C2000F0A1F908
:10111C001C2000F0BAF900BF1037BD4680BD00BFDF
:10112C000010024080B400AFFEE780B400AFFEE7D1
:10113C0080B400AFFEE780B400AFFEE780B400AF30
:10114C00FEE780B400AF00BFBD4680BC704780B4E2
:10115C0000AF00BFBD4680BC704780B400AF00BF7D
:10116C00BD4680BC704780B500AF00F07FF800BF73
:10117C0080BD000080B500AF024800F0B9FF00BF91
:10118C0080BD00BF2800002080B400AF00BFBD466A
:10119C0080BC70470C480D490D4A002302E0D4581E
:1011AC00C4500433C4188C42F9D30A4A0A4C0023A5
:1011BC0001E013600432A242FBD3FFF7E5FF01F01C
:1011CC00E7FAFFF72DFE7047000000200C0000200E
:1011DC00604C00080C00002088010020FEE7000095
:1011EC0080B500AF084B1B68074A43F0100313602F
:1011FC00032000F023F90F2000F008F8FFF74CFF54
:10120C000023184680BD00BF0020024080B582B08C
:10121C0000AF7860124B1A68124B1B7819464FF4CA
:10122C007A73B3FBF1F3B2FBF3F3184600F03BF91E
:10123C000346002B01D001230EE07B680F2B0AD84C
:10124C00002279684FF0FF3000F003F9064A7B6802
:10125C001360002300E0012318460837BD4680BD0B
:10126C0000000020080000200400002080B400AF23
:10127C00054B1B781A46054B1B681344034A136035
:10128C0000BFBD4680BC70470800002084010020D0
:10129C0080B400AF024B1B681846BD4680BC70473B
:1012AC008401002080B485B000AF78607B6803F0C7
:1012BC000703FB600C4BDB68BB60BA684FF6FF039F
:1012CC001340BB60FB681A02BB68134343F0BF6357
:1012DC0043F40033BB60044ABB68D36000BF1437CF
:1012EC00BD4680BC704700BF00ED00E080B400AF8D
:1012FC00044BDB681B0A03F007031846BD4680BC91
:10130C00704700BF00ED00E080B483B000AF03462F
:10131C00FB7197F90730002B0BDBFB7903F01F02F5
:10132C00064997F907305B09012000FA02F241F8EF
:10133C00232000BF0C37BD4680BC704700E100E0A5
:10134C0080B483B000AF03463960FB7197F9073066
:10135C00002B0ADB3B68DAB20C4997F90730120113
:10136C00D2B20B4483F800230AE03B68DAB2084996
:10137C00FB7903F00F03043B1201D2B20B441A7633
:10138C0000BF0C37BD4680BC704700BF00E100E0D9
:10139C0000ED00E080B489B000AFF860B9607A600D
:1013AC00FB6803F00703FB61FB69C3F10703042B24
:1013BC0028BF0423BB61FB690433062B02D9FB69EC
:1013CC00033B00E000237B614FF0FF32BB6902FA64
:1013DC0003F3DA43BB681A407B699A404FF0FF3144
:1013EC007B6901FA03F3D9437B680B40134318461E
:1013FC002437BD4680BC704780B582B000AF7860A2
:10140C007B68013BB3F1807F01D301230FE00A4AD3
:10141C007B68013B53600F214FF0FF30FFF790FFCB
:10142C00054B00229A60044B07221A6000231846D1
:10143C000837BD4680BD00BF10E000E080B582B02B
:10144C0000AF78607868FFF72DFF00BF0837BD4606
:10145C0080BD80B586B000AF0346B9607A60FB737F
:10146C0000237B61FFF742FF78617A68B96878697D
:10147C00FFF790FF024697F90F3011461846FFF719
:10148C005FFF00BF1837BD4680BD80B582B000AF8E
:10149C000346FB7197F907301846FFF735FF00BF7D
:1014AC000837BD4680BD80B582B000AF78607868E3
:1014BC00FFF7A2FF034618460837BD4680BD000063
:1014CC0080B48BB000AF7860396000237B6200235E
:1014DC003B6261E101227B6A02FA03F3FB613B6828
:1014EC001B68FA691340BB61BA69FB699A4240F008
:1014FC0050813B685B68974A93425ED0954A934211
:10150C0075D8954A934258D0934A93426FD8934AD0
:10151C00934252D0914A934269D8914A93424CD00B
:10152C008F4A934263D88F4A934246D08D4A934256
:10153C005DD8122B2AD8122B59D801A252F823F0BD
:10154C00C7150008A1150008B3150008F51500080B
:10155C00FB150008FB150008FB150008FB1500081F
:10156C00FB150008FB150008FB150008FB1500080F
:10157C00FB150008FB150008FB150008FB150008FF
:10158C00FB150008A9150008BD150008764A934202
:10159C0013D02CE03B68DB683B6229E03B68DB68DE
:1015AC0004333B6224E03B68DB6808333B621FE09A
:1015BC003B68DB680C333B621AE03B689B68002B92
:1015CC0002D104233B6213E03B689B68012B05D1DD
:1015DC0008233B627B68FA691A6109E008233B62C5
:1015EC007B68FA695A6103E000233B6200E000BFAC
:1015FC00BB69FF2B01D87B6801E07B6804337B61FE
:10160C00BB69FF2B02D87B6A9B0002E07B6A083B1C
:10161C009B003B617B691A680F213B6901FA03F35C
:10162C00DB431A40396A3B6901FA03F31A437B69BD
:10163C001A603B685B6803F08053002B00F0A980B4
:10164C004A4B9B69494A43F001039361474B9B69A1
:10165C0003F00103BB60BB68454A7B6A9B080233FD
:10166C0052F82330FB607B6A03F003039B000F22CC
:10167C0002FA03F3DB43FA681340FB607B683D4AD4
:10168C0093420DD07B683C4A934207D07B683B4A1F
:10169C00934201D1022304E0032302E0012300E082
:1016AC0000237A6A02F0030292009340FA68134313
:1016BC00FB602F497B6A9B080233FA6841F82320B0
:1016CC003B685B6803F48033002B06D02C4B1A6804
:1016DC002B49BB6913430B6006E0294B1A68BB69A5
:1016EC00DB43274913400B603B685B6803F4003312
:1016FC00002B06D0224B5A682149BB6913434B601F
:10170C0006E01F4B5A68BB69DB431D4913404B6015
:10171C003B685B6803F48013002B06D0184B9A6867
:10172C001749BB6913438B6006E0154B9A68BB697C
:10173C00DB43134913408B603B685B6803F4001375
:10174C00002B1FD00E4BDA680D49BB691343CB60DD
:10175C001FE000BF0000321000003110000022100A
:10176C0000002110000012100000111000100240A7
:10177C000000014000080140000C01400010014035
:10178C00000401400B4BDA68BB69DB430949134089
:10179C00CB607B6A01337B623B681A687B6A22FAF6
:1017AC0003F3002B7FF496AE00BF00BF2C37BD4671
:1017BC0080BC70470004014080B483B000AF7860F7
:1017CC000B467B8013467B707B78002B03D07A888A
:1017DC007B681A6103E07B881A047B681A6100BF7E
:1017EC000C37BD4680BC704780B586B000AF7860C2
:1017FC007B68002B01D1012372E27B681B6803F02C
:10180C000103002B00F08780924B5B6803F00C0304
:10181C00042B0CD08F4B5B6803F00C03082B12D1FC
:10182C008C4B5B6803F48033B3F5803F0BD1894B51
:10183C001B6803F40033002B6CD07B685B68002BB7
:10184C0068D101234CE27B685B68B3F5803F06D11D
:10185C00804B1B687F4A43F4803313602EE07B6817
:10186C005B68002B0CD17B4B1B687A4A23F48033CA
:10187C001360784B1B68774A23F4802313601DE0B8
:10188C007B685B68B3F5A02F0CD1724B1B68714A57
:10189C0043F4802313606F4B1B686E4A43F4803310
:1018AC0013600BE06B4B1B686A4A23F480331360A4
:1018BC00684B1B68674A23F4802313607B685B6862
:1018CC00002B13D0FFF7E4FC386108E0FFF7E0FCD5
:1018DC0002463B69D31A642B01D9032300E25D4B0A
:1018EC001B6803F40033002BF0D014E0FFF7D0FC9E
:1018FC00386108E0FFF7CCFC02463B69D31A642B35
:10190C0001D90323ECE1534B1B6803F40033002B88
:10191C00F0D100E000BF7B681B6803F00203002BD2
:10192C0063D04C4B5B6803F00C03002B0BD0494B82
:10193C005B6803F00C03082B1CD1464B5B6803F46B
:10194C008033002B16D1434B1B6803F00203002B92
:10195C0005D07B681B69012B01D00123C0E13D4BF5
:10196C001B6823F0F8027B685B69DB003949134381
:10197C000B603AE07B681B69002B20D0364B0122B0
:10198C001A60FFF785FC386108E0FFF781FC02461E
:10199C003B69D31A022B01D90323A1E12D4B1B6800
:1019AC0003F00203002BF0D02A4B1B6823F0F80243
:1019BC007B685B69DB00274913430B6015E0264B02
:1019CC0000221A60FFF764FC386108E0FFF760FC46
:1019DC0002463B69D31A022B01D9032380E11D4B2C
:1019EC001B6803F00203002BF0D17B681B6803F02B
:1019FC000803002B3AD07B689B69002B19D0174B3E
:101A0C0001221A60FFF744FC386108E0FFF740FC44
:101A1C0002463B69D31A022B01D9032360E10D4B1B
:101A2C005B6A03F00203002BF0D0012000F0A6FA51
:101A3C001CE00A4B00221A60FFF72AFC38610FE009
:101A4C00FFF726FC02463B69D31A022B08D9032365
:101A5C0046E100BF001002400000424280044242B6
:101A6C00924B5B6A03F00203002BE9D17B681B6885
:101A7C0003F00403002B00F0A6800023FB758B4BB6
:101A8C00DB6903F08053002B0DD1884BDB69874A4F
:101A9C0043F08053D361854BDB6903F08053BB600B
:101AAC00BB680123FB75824B1B6803F48073002B0E
:101ABC0018D17F4B1B687E4A43F480731360FFF789
:101ACC00E7FB386108E0FFF7E3FB02463B69D31AFA
:101ADC00642B01D9032303E1754B1B6803F480735A
:101AEC00002BF0D07B68DB68012B06D16F4B1B6A97
:101AFC006E4A43F0010313622DE07B68DB68002B18
:101B0C000CD16A4B1B6A694A23F001031362674BC1
:101B1C001B6A664A23F0040313621CE07B68DB68D3
:101B2C00052B0CD1614B1B6A604A43F00403136212
:101B3C005E4B1B6A5D4A43F0010313620BE05B4B87
:101B4C001B6A5A4A23F001031362584B1B6A574A0B
:101B5C0023F0040313627B68DB68002B15D0FFF7BE
:101B6C0097FB38610AE0FFF793FB02463B69D31AF7
:101B7C0041F28832934201D90323B1E04B4B1B6AEB
:101B8C0003F00203002BEED014E0FFF781FB386169
:101B9C000AE0FFF77DFB02463B69D31A41F288321B
:101BAC00934201D903239BE0404B1B6A03F00203D1
:101BBC00002BEED1FB7D012B05D13C4BDB693B4A65
:101BCC0023F08053D3617B68DB69002B00F08780A6
:101BDC00364B5B6803F00C03082B61D07B68DB6928
:101BEC00022B46D1334B00221A60FFF751FB3861B0
:101BFC0008E0FFF74DFB02463B69D31A022B01D9D3
:101C0C0003236DE0294B1B6803F00073002BF0D10C
:101C1C007B681B6AB3F5803F08D1244B5B6823F4C7
:101C2C0000327B689B68214913434B601F4B5B68F8
:101C3C0023F474127B68196A7B685B6A0B431B493B
:101C4C0013434B601B4B01221A60FFF721FB3861D9
:101C5C0008E0FFF71DFB02463B69D31A022B01D9A2
:101C6C0003233DE0114B1B6803F00073002BF0D0F5
:101C7C0035E0104B00221A60FFF70AFB386108E0D0
:101C8C00FFF706FB02463B69D31A022B01D903234B
:101C9C0026E0064B1B6803F00073002BF0D11EE00E
:101CAC007B68DB69012B07D1012319E0001002408E
:101CBC0000700040600042420B4B5B68FB60FB68AD
:101CCC0003F480327B681B6A9A4206D1FB6803F4EA
:101CDC0070127B685B6A9A4201D0012300E00023FA
:101CEC0018461837BD4680BD0010024080B584B040
:101CFC0000AF786039607B68002B01D10123D0E004
:101D0C006A4B1B6803F007033A689A4210D9674B79
:101D1C001B6823F0070265493B6813430B60634B58
:101D2C001B6803F007033A689A4201D00123B8E01C
:101D3C007B681B6803F00203002B20D07B681B68B8
:101D4C0003F00403002B05D0594B5B68584A43F44D
:101D5C00E06353607B681B6803F00803002B05D01D
:101D6C00534B5B68524A43F460535360504B5B686F
:101D7C0023F0F0027B689B684D4913434B607B68F2
:101D8C001B6803F00103002B40D07B685B68012BC0
:101D9C0007D1474B1B6803F40033002B15D10123EB
:101DAC007FE07B685B68022B07D1414B1B6803F01B
:101DBC000073002B09D1012373E03D4B1B6803F02A
:101DCC000203002B01D101236BE0394B5B6823F03C
:101DDC0003027B685B68364913434B60FFF758FA84
:101DEC00F8600AE0FFF754FA0246FB68D31A41F296
:101DFC008832934201D9032353E02D4B5B6803F0E7
:101E0C000C027B685B689B009A42EBD1274B1B68EA
:101E1C0003F007033A689A4210D2244B1B6823F054
:101E2C00070222493B6813430B60204B1B6803F0ED
:101E3C0007033A689A4201D0012332E07B681B68A1
:101E4C0003F00403002B08D0194B5B6823F4E06209
:101E5C007B68DB68164913434B607B681B6803F097
:101E6C000803002B09D0124B5B6823F460527B688B
:101E7C001B69DB000E4913434B6000F021F802464E
:101E8C000B4B5B681B0903F00F030A49CB5C22FA6E
:101E9C0003F3094A1360094B1B681846FFF7B6F9A0
:101EAC00002318461037BD4680BD00BF00200240FD
:101EBC0000100240484C00080000002004000020E4
:101ECC0090B48AB000AF294B3C1D0FCB84E80F00B7
:101EDC0040F201233B800023FB610023BB61002304
:101EEC007B6200237B6100233B62214B5B68FB61BF
:101EFC00FB6903F00C03042B02D0082B03D02BE05E
:101F0C001C4B3B622BE0FB699B0C03F00F0328334B
:101F1C003B4413F8243C7B61FB6903F48033002BB6
:101F2C0012D0134B5B685B0C03F0010328333B446A
:101F3C0013F8283CBB617B690E4A03FB02F2BB69B8
:101F4C00B2FBF3F37B6204E07B690B4A02FB03F305
:101F5C007B627B6A3B6202E0064B3B6200BF3B6AE2
:101F6C0018462837BD4690BC704700BF384C000857
:101F7C000010024000127A0000093D0080B485B0C8
:101F8C0000AF78600A4B1B680A4AA2FB03235B0A6A
:101F9C007A6802FB03F3FB6000BFFB685A1EFA6011
:101FAC00002BF9D100BF00BF1437BD4680BC704771
:101FBC0000000020D34D621080B582B000AF786075
:101FCC007B68002B01D1012341E07B6893F83D3005
:101FDC00DBB2002B06D17B68002283F83C207868AA
:101FEC00FFF77CF87B68022283F83D207B681A6837
:101FFC007B6804331946104600F06AFA7B680122AC
:10200C0083F846207B68012283F83E207B680122FE
:10201C0083F83F207B68012283F840207B680122F3
:10202C0083F841207B68012283F842207B680122DF
:10203C0083F843207B68012283F844207B680122CB
:10204C0083F845207B68012283F83D200023184645
:10205C000837BD4680BD000080B485B000AF786005
:10206C007B6893F83D30DBB2012B01D0012335E0C6
:10207C007B68022283F83D207B681B68DA687B68EA
:10208C001B6842F00102DA607B681B68164A9342B7
:10209C0009D07B681B68B3F1804F04D07B681B6848
:1020AC00124A934211D17B681B689B6803F00703AB
:1020BC00FB60FB68062B10D07B681B681A687B687A
:1020CC001B6842F001021A6007E07B681B681A6803
:1020DC007B681B6842F001021A6000231846143713
:1020EC00BD4680BC704700BF002C0140000400407E
:1020FC0080B582B000AF78607B681B681B6903F009
:10210C000203022B22D17B681B68DB6803F00203FD
:10211C00022B1BD17B681B686FF002021A617B6873
:10212C0001221A777B681B689B6903F00303002B61
:10213C0003D0786800F0B1F905E0786800F0A4F9F4
:10214C00786800F0B3F97B6800221A777B681B680B
:10215C001B6903F00403042B22D17B681B68DB682A
:10216C0003F00403042B1BD17B681B686FF0040283
:10217C001A617B6802221A777B681B689B6903F4DF
:10218C004073002B03D0786800F087F905E078687D
:10219C0000F07AF9786800F089F97B6800221A77E8
:1021AC007B681B681B6903F00803082B22D17B6832
:1021BC001B68DB6803F00803082B1BD17B681B68CA
:1021CC006FF008021A617B6804221A777B681B681F
:1021DC00DB6903F00303002B03D0786800F05DF992
:1021EC0005E0786800F050F9786800F05FF97B68DA
:1021FC0000221A777B681B681B6903F01003102BF5
:10220C0022D17B681B68DB6803F01003102B1BD1F9
:10221C007B681B686FF010021A617B6808221A77C2
:10222C007B681B68DB6903F44073002B03D0786870
:10223C0000F033F905E0786800F026F9786800F0D2
:10224C0035F97B6800221A777B681B681B6903F0E1
:10225C000103012B0ED17B681B68DB6803F00103C3
:10226C00012B07D17B681B686FF001021A6178683B
:10227C00FEF700FF7B681B681B6903F08003802B53
:10228C000ED17B681B68DB6803F08003802B07D1C1
:10229C007B681B686FF080021A61786800F067FA3F
:1022AC007B681B681B6903F04003402B0ED17B68D5
:1022BC001B68DB6803F04003402B07D17B681B686D
:1022CC006FF040021A61786800F0F9F87B681B68BF
:1022DC001B6903F02003202B0ED17B681B68DB6885
:1022EC0003F02003202B07D17B681B686FF02002C2
:1022FC001A61786800F032FA00BF0837BD4680BD1D
:10230C0080B584B000AF786039607B6893F83C305E
:10231C00012B01D10223B3E07B68012283F83C201E
:10232C007B68022283F83D207B681B689B68FB60FE
:10233C00FB6823F07703FB60FB6823F47F43FB60AF
:10234C007B681B68FA689A603B681B68B3F5005F92
:10235C003ED0B3F5005F00F28780B3F5805F00F0EC
:10236C008580B3F5805F7FD8702B1AD0702B7BD80B
:10237C00602B50D0602B77D8502B3CD0502B73D87F
:10238C00402B58D0402B6FD8302B64D0302B6BD8CF
:10239C00202B60D0202B67D8002B5CD0102B5AD070
:1023AC0062E07B6818683B6899683B685A683B68D0
:1023BC00DB6800F05CF97B681B689B68FB60FB6862
:1023CC0043F07703FB607B681B68FA689A604EE009
:1023DC007B6818683B6899683B685A683B68DB689F
:1023EC0000F045F97B681B689A687B681B6842F4AF
:1023FC0080429A603BE07B6818683B6859683B6890
:10240C00DB681A4600F0BCF87B681B685021184644
:10241C0000F013F92BE07B6818683B6859683B683F
:10242C00DB681A4600F0DAF87B681B6860211846F6
:10243C0000F003F91BE07B6818683B6859683B683F
:10244C00DB681A4600F09CF87B681B684021184634
:10245C0000F0F3F80BE07B681A683B681B681946C0
:10246C00104600F0EAF802E000BF00E000BF7B6815
:10247C00012283F83D207B68002283F83C20002356
:10248C0018461037BD4680BD80B483B000AF78606D
:10249C0000BF0C37BD4680BC704780B483B000AF22
:1024AC00786000BF0C37BD4680BC704780B483B0E9
:1024BC0000AF786000BF0C37BD4680BC704780B45D
:1024CC0083B000AF786000BF0C37BD4680BC70474E
:1024DC0080B485B000AF786039607B681B68FB60A6
:1024EC007B68254A934207D07B68B3F1804F03D0B9
:1024FC007B68224A934208D1FB6823F07003FB608F
:10250C003B685B68FA681343FB607B681A4A93422A
:10251C0007D07B68B3F1804F03D07B68174A934296
:10252C0008D1FB6823F44073FB603B68DB68FA68F6
:10253C001343FB60FB6823F080023B685B69134329
:10254C00FB607B68FA681A603B689A687B68DA62A1
:10255C003B681A687B689A627B68074A934203D18E
:10256C003B681A697B681A637B6801225A6100BF59
:10257C001437BD4680BC7047002C0140000400405D
:10258C0080B487B000AFF860B9607A60FB681B6AF2
:10259C007B61FB681B6A23F00102FB681A62FB6813
:1025AC009B693B613B6923F0F0033B617B681B013A
:1025BC003A6913433B617B6923F00A037B617A69B7
:1025CC00BB6813437B61FB683A699A61FB687A6963
:1025DC001A6200BF1C37BD4680BC704780B487B000
:1025EC0000AFF860B9607A60FB681B6A23F01002D8
:1025FC00FB681A62FB689B697B61FB681B6A3B6129
:10260C007B6923F470437B617B681B037A691343FA
:10261C007B613B6923F0A0033B61BB681B013A69FA
:10262C0013433B61FB687A699A61FB683A691A62E9
:10263C0000BF1C37BD4680BC704780B485B000AF6E
:10264C00786039607B689B68FB60FB6823F07003E3
:10265C00FB603A68FB68134343F00703FB607B683D
:10266C00FA689A6000BF1437BD4680BC704780B4CE
:10267C0087B000AFF860B9607A603B60FB689B681C
:10268C007B617B6923F47F437B613B681A027B6827
:10269C001A43BB6813437A6913437B61FB687A69FD
:1026AC009A6000BF1C37BD4680BC704780B485B0B3
:1026BC0000AF786039607B6893F83C30012B01D116
:1026CC00022341E07B68012283F83C207B680222D4
:1026DC0083F83D207B681B685B68FB607B681B682C
:1026EC009B68BB60FB6823F07003FB603B681B6856
:1026FC00FA681343FB607B681B68FA685A607B6856
:10270C001B68144A934209D07B681B68B3F1804F55
:10271C0004D07B681B68104A93420CD1BB6823F031
:10272C008003BB603B685B68BA681343BB607B6823
:10273C001B68BA689A607B68012283F83D207B682D
:10274C00002283F83C20002318461437BD4680BC79
:10275C00704700BF002C01400004004080B483B0DF
:10276C0000AF786000BF0C37BD4680BC704780B4AA
:10277C0083B000AF786000BF0C37BD4680BC70479B
:10278C0003460244934200D1704703F8011BF9E75A
:10279C0070B500260C4D0D4C641BA410A64209D13B
:1027AC0000F028F800260A4D0A4C641BA410A6421F
:1027BC0005D170BD55F8043B98470136EEE755F846
:1027CC00043B98470136F2E7584C0008584C000877
:1027DC00584C00085C4C00080A44914200F1FF334D
:1027EC0000D1704710B511F8014B914203F8014F1D
:1027FC00F9D110BDF8B500BFF8BC08BC9E467047B7
:0C280C00F8B500BFF8BC08BC9E46704741
:1028180000000000000000000100000001000000AE
:10282800010000000100000000000000000000009E
:10283800000000000100000001000000000000008E
:10284800000000000100000001000000000000007E
:10285800000000000100000001000000000000006E
:10286800000000000100000001000000000000005E
:10287800000000000100000001000000000000004E
:10288800010000000100000001000000000000003D
:10289800000000000100000001000000010000002D
:1028A800000000000100000001000000000000001E
:1028B800000000000100000001000000000000000E
:1028C80000000000010000000100000000000000FE
:1028D80000000000010000000100000000000000EE
:1028E80000000000010000000100000000000000DE
:1028F80000000000000000000100000001000000CE
:1029080001000000010000000000000000000000BD
:1029180000000000000000000000000001000000AE
:10292800010000000000000000000000000000009E
:10293800000000000000000001000000010000008D
:10294800010000000000000000000000000000007E
:10295800000000000000000000000000010000006E
:10296800010000000000000000000000000000005E
:10297800000000000000000000000000010000004E
:10298800010000000000000000000000000000003E
:10299800000000000000000000000000010000002E
:1029A800010000000000000000000000000000001E
:1029B800000000000000000000000000010000000E
:1029C80001000000000000000000000000000000FE
:1029D80000000000000000000000000001000000EE
:1029E80001000000000000000000000000000000DE
:1029F80000000000000000000100000001000000CD
:102A080001000000010000000000000000000000BC
:102A180000000000000000000100000001000000AC
:102A2800010000000100000000000000000000009C
:102A3800000000000100000000000000000000008D
:102A4800000000000100000001000000000000007C
:102A5800000000000000000000000000000000006E
:102A6800000000000100000001000000000000005C
:102A7800000000000000000000000000000000004E
:102A8800000000000100000001000000000000003C
:102A9800000000000000000000000000000000002E
:102AA800010000000100000000000000000000001C
:102AB800000000000000000000000000010000000D
:102AC80001000000000000000000000000000000FD
:102AD80000000000000000000100000001000000EC
:102AE80000000000000000000000000000000000DE
:102AF80000000000010000000100000001000000CB
:102B080001000000010000000100000000000000BA
:102B180000000000000000000100000001000000AB
:102B2800010000000100000000000000000000009B
:102B3800000000000100000000000000000000008C
:102B4800000000000100000001000000000000007B
:102B5800000000000000000000000000000000006D
:102B6800000000000100000001000000000000005B
:102B7800000000000000000000000000010000004C
:102B8800010000000100000000000000000000003B
:102B9800000000000000000000000000000000002D
:102BA800000000000100000001000000000000001B
:102BB800000000000000000000000000000000000D
:102BC80000000000010000000100000000000000FB
:102BD80000000000010000000000000000000000EC
:102BE80000000000010000000100000000000000DB
:102BF80000000000000000000100000001000000CB
:102C080001000000010000000000000000000000BA
:102C180000000000000000000000000000000000AC
:102C2800010000000100000000000000000000009A
:102C3800000000000000000000000000010000008B
:102C4800010000000100000000000000000000007A
:102C5800000000000000000001000000000000006B
:102C6800010000000100000000000000000000005A
:102C7800000000000000000001000000000000004B
:102C8800010000000100000000000000000000003A
:102C9800000000000100000000000000000000002B
:102CA800010000000100000000000000000000001A
:102CB8000000000001000000010000000100000009
:102CC80001000000010000000100000000000000F9
:102CD80000000000000000000000000000000000EC
:102CE80001000000010000000000000000000000DA
:102CF80000000000000000000000000001000000CB
:102D080001000000010000000100000000000000B8
:102D180000000000010000000100000001000000A8
:102D28000100000001000000010000000000000098
:102D38000000000001000000010000000000000089
:102D4800000000000000000000000000000000007B
:102D58000000000001000000010000000100000068
:102D68000100000001000000000000000000000059
:102D7800000000000100000000000000000000004A
:102D88000000000001000000010000000000000039
:102D9800000000000000000000000000000000002B
:102DA8000000000001000000010000000000000019
:102DB800000000000000000000000000000000000B
:102DC80000000000010000000100000000000000F9
:102DD80000000000010000000000000000000000EA
:102DE80000000000010000000100000000000000D9
:102DF80000000000000000000100000001000000C9
:102E080001000000010000000000000000000000B8
:102E180000000000000000000100000001000000A8
:102E28000100000001000000000000000000000098
:102E38000000000001000000010000000000000088
:102E48000000000000000000010000000000000079
:102E58000000000001000000010000000000000068
:102E6800000000000000000000000000000000005A
:102E78000000000001000000010000000100000047
:102E88000100000001000000000000000000000038
:102E98000000000001000000010000000000000028
:102EA8000000000001000000010000000000000018
:102EB8000000000001000000010000000000000008
:102EC80000000000010000000100000000000000F8
:102ED80000000000010000000100000000000000E8
:102EE80000000000010000000100000000000000D8
:102EF80000000000000000000100000001000000C8
:102F080001000000010000000000000000000000B7
:102F180000000000010000000100000001000000A6
:102F28000100000001000000010000000000000096
:102F38000000000001000000000000000000000088
:102F48000000000001000000010000000000000077
:102F58000000000000000000000000000000000069
:102F68000100000001000000000000000000000057
:102F78000000000000000000000000000000000049
:102F88000100000001000000000000000000000037
:102F98000000000000000000000000000100000028
:102FA8000100000000000000000000000000000018
:102FB8000000000000000000000000000100000008
:102FC80001000000000000000000000000000000F8
:102FD80000000000000000000100000001000000E7
:102FE80000000000000000000000000000000000D9
:102FF80000000000000000000100000001000000C7
:1030080000000000000000000000000000000000B8
:1030180000000000000000000100000001000000A6
:103028000100000001000000000000000000000096
:103038000000000001000000010000000000000086
:103048000000000001000000010000000000000076
:103058000000000001000000010000000000000066
:103068000000000001000000010000000000000056
:103078000000000000000000010000000100000046
:103088000100000001000000000000000000000036
:103098000000000001000000010000000000000026
:1030A8000000000001000000010000000000000016
:1030B8000000000001000000010000000000000006
:1030C80000000000010000000100000000000000F6
:1030D80000000000010000000100000000000000E6
:1030E80000000000010000000100000000000000D6
:1030F80000000000000000000100000001000000C6
:1031080001000000010000000000000000000000B5
:1031180000000000000000000100000001000000A5
:103128000100000001000000000000000000000095
:103138000000000001000000010000000000000085
:103148000000000001000000010000000000000075
:103158000000000001000000010000000000000065
:103168000000000001000000010000000000000055
:103178000000000001000000010000000000000045
:103188000000000001000000010000000000000035
:103198000000000000000000010000000100000025
:1031A8000100000001000000010000000000000014
:1031B8000000000000000000000000000000000007
:1031C80000000000010000000100000000000000F5
:1031D80000000000010000000000000000000000E6
:1031E80000000000010000000100000000000000D5
:1031F80000000000000000000100000001000000C5
:1032080001000000010000000000000000000000B4
:1032180000000000000000000000000001000000A5
:103228000100000000000000000000000000000095
:103238000000000000000000010000000000000085
:103248000000000001000000000000000000000075
:103258000000000001000000010000000000000064
:103268000000000001000000010000000000000054
:103278000000000001000000010000000000000044
:103288000000000001000000010000000000000034
:103298000000000001000000010000000000000024
:1032A8000000000001000000010000000000000014
:1032B8000000000001000000010000000100000003
:1032C80001000000010000000100000000000000F3
:1032D80000000000010000000100000000000000E4
:1032E80000000000010000000100000000000000D4
:1032F80000000000010000000100000000000000C4
:1033080000000000010000000100000000000000B3
:1033180000000000010000000100000001000000A2
:103328000100000001000000000000000000000093
:103338000000000001000000010000000000000083
:103348000000000001000000010000000000000073
:103358000000000001000000010000000000000063
:103368000000000001000000010000000000000053
:103378000000000001000000010000000100000042
:103388000100000001000000000000000000000033
:103398000000000001000000010000000000000023
:1033A8000000000001000000010000000000000013
:1033B8000000000001000000010000000000000003
:1033C80000000000010000000100000000000000F3
:1033D80000000000010000000100000000000000E3
:1033E80000000000010000000100000000000000D3
:1033F80000000000010000000100000001000000C2
:1034080001000000010000000000000000000000B2
:1034180000000000000000000100000001000000A2
:103428000100000001000000000000000000000092
:103438000000000001000000010000000000000082
:103448000000000001000000010000000000000072
:103458000000000001000000010000000000000062
:103468000000000001000000010000000000000052
:103478000000000001000000010000000000000042
:103488000000000000000000000000000000000034
:103498000000000001000000010000000000000022
:1034A8000000000000000000000000000000000014
:1034B8000000000001000000010000000000000002
:1034C80000000000010000000100000000000000F2
:1034D80000000000010000000100000000000000E2
:1034E80000000000010000000100000000000000D2
:1034F80000000000000000000100000001000000C2
:1035080001000000010000000000000000000000B1
:1035180000000000010000000100000001000000A0
:103528000100000001000000000000000000000091
:103538000000000001000000010000000000000081
:103548000000000001000000010000000000000071
:103558000000000001000000010000000000000061
:103568000000000001000000010000000000000051
:103578000000000001000000010000000000000041
:103588000000000001000000010000000000000031
:103598000000000001000000010000000000000021
:1035A8000000000001000000010000000000000011
:1035B8000000000001000000010000000000000001
:1035C80000000000010000000100000000000000F1
:1035D80000000000010000000100000000000000E1
:1035E80000000000010000000100000000000000D1
:1035F80000000000010000000100000001000000C0
:1036080001000000010000000000000000000000B0
:10361800000000000100000001000000010000009F
:10362800010000000100000001000000000000008F
:103638000000000001000000010000000000000080
:103648000000000000000000000000000000000072
:103658000000000001000000010000000000000060
:103668000000000000000000000000000000000052
:10367800000000000100000001000000010000003F
:103688000100000001000000000000000000000030
:103698000000000001000000010000000000000020
:1036A8000000000000000000000000000000000012
:1036B8000000000001000000010000000000000000
:1036C80000000000000000000000000000000000F2
:1036D80000000000010000000100000000000000E0
:1036E80000000000000000000000000000000000D2
:1036F80000000000010000000100000001000000BF
:1037080001000000010000000100000000000000AE
:10371800000000000100000001000000010000009E
:10372800010000000100000001000000000000008E
:10373800000000000100000001000000000000007F
:103748000000000000000000000000000000000071
:10375800000000000100000001000000000000005F
:103768000000000000000000000000000000000051
:10377800000000000100000001000000010000003E
:10378800010000000100000000000000000000002F
:10379800000000000100000001000000000000001F
:1037A8000000000000000000000000000000000011
:1037B80000000000010000000100000000000000FF
:1037C80000000000000000000000000000000000F1
:1037D80000000000010000000100000000000000DF
:1037E80000000000000000000000000000000000D1
:1037F80000000000010000000100000000000000BF
:1038080000000000000000000000000000000000B0
:10381800000000000000000001000000010000009E
:10382800010000000100000000000000000000008E
:10383800000000000100000001000000000000007E
:10384800000000000100000001000000000000006E
:10385800000000000100000001000000000000005E
:10386800000000000100000001000000000000004E
:10387800000000000100000001000000000000003E
:103888000000000000000000000000000000000030
:10389800000000000100000001000000000000001E
:1038A800010000000100000001000000000000000D
:1038B80000000000010000000100000000000000FE
:1038C80000000000010000000100000000000000EE
:1038D80000000000010000000100000000000000DE
:1038E80000000000010000000100000000000000CE
:1038F80000000000000000000100000001000000BE
:1039080001000000010000000000000000000000AD
:10391800000000000100000001000000000000009D
:10392800000000000100000001000000000000008D
:10393800000000000100000001000000000000007D
:10394800000000000100000001000000000000006D
:10395800000000000100000001000000000000005D
:10396800000000000100000001000000000000004D
:10397800000000000100000001000000010000003C
:10398800010000000100000001000000000000002C
:10399800000000000100000001000000010000001C
:1039A800010000000100000001000000000000000C
:1039B80000000000010000000100000000000000FD
:1039C80000000000010000000100000000000000ED
:1039D80000000000010000000100000000000000DD
:1039E80000000000010000000100000000000000CD
:1039F80000000000010000000100000000000000BD
:103A080000000000010000000100000000000000AC
:103A1800000000000000000001000000010000009C
:103A2800010000000100000000000000000000008C
:103A3800000000000000000000000000010000007D
:103A4800010000000000000000000000000000006D
:103A5800000000000000000000000000010000005D
:103A6800010000000000000000000000000000004D
:103A7800000000000000000000000000010000003D
:103A8800010000000000000000000000000000002D
:103A9800000000000000000000000000010000001D
:103AA800010000000000000000000000000000000D
:103AB80000000000000000000000000001000000FD
:103AC80001000000000000000000000000000000ED
:103AD80000000000000000000000000001000000DD
:103AE80001000000000000000000000000000000CD
:103AF80000000000000000000100000001000000BC
:103B080001000000010000000000000000000000AB
:103B1800000000000000000000000000000000009D
:103B2800000000000100000001000000000000008B
:103B3800000000000000000000000000000000007D
:103B4800000000000100000001000000000000006B
:103B5800000000000000000000000000000000005D
:103B6800000000000100000001000000000000004B
:103B7800000000000000000000000000000000003D
:103B8800000000000100000001000000000000002B
:103B9800000000000000000000000000000000001D
:103BA800000000000100000001000000000000000B
:103BB80000000000010000000100000000000000FB
:103BC80000000000010000000100000000000000EB
:103BD80000000000010000000100000000000000DB
:103BE80000000000010000000100000000000000CB
:103BF80000000000000000000100000001000000BB
:103C080001000000010000000000000000000000AA
:103C1800000000000100000001000000000000009A
:103C2800000000000000000001000000000000008B
:103C3800000000000100000001000000000000007A
:103C4800000000000100000000000000000000006B
:103C5800000000000100000001000000000000005A
:103C6800010000000000000000000000000000004B
:103C78000000000001000000010000000100000039
:103C8800000000000000000000000000000000002C
:103C9800000000000100000001000000000000001A
:103CA800010000000000000000000000000000000B
:103CB80000000000010000000100000000000000FA
:103CC80000000000010000000000000000000000EB
:103CD80000000000010000000100000000000000DA
:103CE80000000000010000000100000000000000CA
:103CF80000000000010000000100000000000000BA
:103D080000000000010000000100000000000000A9
:103D18000000000001000000010000000000000099
:103D2800000000000000000000000000000000008B
:103D38000000000001000000010000000000000079
:103D4800000000000000000000000000000000006B
:103D58000000000001000000010000000000000059
:103D6800000000000000000000000000000000004B
:103D78000000000001000000010000000000000039
:103D8800000000000000000000000000000000002B
:103D98000000000001000000010000000000000019
:103DA800000000000000000000000000000000000B
:103DB80000000000010000000100000000000000F9
:103DC80000000000000000000000000000000000EB
:103DD80000000000010000000100000000000000D9
:103DE80000000000000000000000000000000000CB
:103DF80000000000010000000100000001000000B8
:103E080001000000010000000100000000000000A7
:103E18000100000001000000000000000000000098
:103E28000000000000000000010000000100000088
:103E38000100000001000000010000000000000077
:103E48000000000001000000010000000100000067
:103E58000100000001000000000000000100000057
:103E68000100000000000000010000000100000047
:103E78000100000001000000000000000000000038
:103E88000000000000000000010000000100000028
:103E98000100000001000000000000000000000018
:103EA8000000000000000000010000000100000008
:103EB80001000000010000000000000000000000F8
:103EC80000000000000000000100000001000000E8
:103ED80001000000010000000000000000000000D8
:103EE80000000000000000000100000001000000C8
:103EF80001000000010000000000000000000000B8
:103F080000000000000000000100000001000000A7
:103F18000000000001000000010000000000000097
:103F28000000000001000000010000000000000087
:103F38000000000001000000010000000000000077
:103F48000000000001000000010000000000000067
:103F58000000000001000000010000000100000056
:103F68000000000001000000010000000000000047
:103F78000000000001000000010000000000000037
:103F88000100000001000000010000000000000026
:103F98000000000001000000010000000000000017
:103FA8000000000001000000010000000000000007
:103FB80000000000010000000100000000000000F7
:103FC80000000000010000000100000000000000E7
:103FD80000000000010000000100000000000000D7
:103FE80000000000010000000100000000000000C7
:103FF80000000000010000000100000000000000B7
:1040080000000000010000000100000000000000A6
:104018000000000000000000010000000100000096
:104028000100000001000000000000000000000086
:104038000000000001000000010000000000000076
:104048000000000001000000010000000000000066
:104058000000000001000000010000000000000056
:104068000000000001000000010000000000000046
:104078000000000001000000010000000000000036
:104088000000000001000000010000000000000026
:104098000000000001000000010000000000000016
:1040A8000000000001000000010000000000000006
:1040B80000000000010000000100000000000000F6
:1040C80000000000010000000100000000000000E6
:1040D80000000000010000000100000000000000D6
:1040E80000000000010000000100000000000000C6
:1040F80000000000000000000100000001000000B6
:1041080001000000010000000000000000000000A5
:104118000000000001000000010000000100000094
:104128000100000001000000000000000000000085
:104138000000000001000000010000000000000075
:104148000000000001000000010000000000000065
:104158000000000001000000010000000000000055
:104168000000000001000000010000000000000045
:104178000000000001000000010000000000000035
:104188000000000001000000010000000000000025
:104198000000000001000000010000000100000014
:1041A8000100000001000000000000000000000005
:1041B80000000000010000000100000000000000F5
:1041C80000000000000000000000000000000000E7
:1041D80000000000010000000100000000000000D5
:1041E80000000000000000000000000000000000C7
:1041F80000000000010000000100000000000000B5
:1042080000000000000000000000000000000000A6
:104218000000000000000000010000000100000094
:104228000100000001000000000000000000000084
:104238000000000001000000010000000000000074
:104248000000000001000000010000000000000064
:104258000000000001000000010000000000000054
:104268000000000001000000010000000000000044
:104278000000000001000000010000000000000034
:104288000000000001000000010000000000000024
:104298000000000001000000010000000000000014
:1042A8000000000001000000010000000000000004
:1042B80000000000010000000100000000000000F4
:1042C80001000000010000000100000000000000E3
:1042D80000000000010000000100000000000000D4
:1042E80000000000010000000100000000000000C4
:1042F80000000000000000000100000001000000B4
:1043080001000000010000000000000001000000A2
:104318000000000001000000010000000100000092
:104328000100000001000000000000000000000083
:104338000000000001000000010000000000000073
:104348000000000001000000010000000000000063
:104358000000000001000000010000000000000053
:104368000000000001000000010000000000000043
:104378000000000001000000010000000000000033
:104388000000000001000000010000000000000023
:104398000000000001000000010000000100000012
:1043A8000100000001000000000000000000000003
:1043B80000000000010000000100000000000000F3
:1043C80000000000010000000100000000000000E3
:1043D80000000000010000000100000000000000D3
:1043E80000000000010000000100000000000000C3
:1043F80000000000010000000100000000000000B3
:1044080000000000010000000100000000000000A2
:104418000000000000000000010000000100000092
:104428000100000001000000000000000000000082
:104438000000000001000000010000000000000072
:104448000000000000000000010000000000000063
:104458000000000001000000010000000000000052
:104468000000000000000000000000000000000044
:104478000000000000000000010000000100000032
:104488000100000001000000000000000000000022
:104498000000000000000000000000000000000014
:1044A8000000000001000000010000000000000002
:1044B80000000000000000000000000000000000F4
:1044C80000000000010000000100000000000000E2
:1044D80000000000010000000000000000000000D3
:1044E80000000000010000000100000000000000C2
:1044F80000000000000000000100000001000000B2
:1045080001000000010000000000000000000000A1
:104518000000000001000000010000000100000090
:104528000100000001000000010000000000000080
:104538000000000000000000000000000100000072
:104548000100000000000000000000000000000062
:104558000000000000000000000000000100000052
:104568000100000000000000000000000000000042
:104578000000000000000000000000000100000032
:104588000100000000000000000000000000000022
:104598000000000000000000000000000100000012
:1045A8000100000000000000000000000000000002
:1045B80000000000000000000000000001000000F2
:1045C80001000000000000000000000000000000E2
:1045D80000000000000000000000000001000000D2
:1045E80001000000000000000000000000000000C2
:1045F80000000000000000000000000001000000B2
:1046080001000000000000000000000000000000A1
:104618000000000001000000010000000000000090
:104628000000000001000000010000000000000080
:104638000000000001000000010000000000000070
:104648000000000001000000010000000000000060
:104658000000000001000000010000000000000050
:104668000000000001000000010000000000000040
:104678000000000001000000010000000000000030
:104688000000000001000000010000000000000020
:104698000000000001000000010000000000000010
:1046A8000000000001000000010000000000000000
:1046B80000000000010000000100000000000000F0
:1046C80000000000010000000100000000000000E0
:1046D80000000000010000000100000000000000D0
:1046E80000000000010000000100000000000000C0
:1046F80000000000000000000100000001000000B0
:10470800010000000100000000000000000000009F
:10471800000000000100000001000000000000008F
:10472800000000000100000001000000000000007F
:10473800000000000100000001000000000000006F
:10474800000000000100000001000000000000005F
:10475800000000000100000001000000000000004F
:10476800000000000100000001000000000000003F
:10477800000000000100000001000000000000002F
:10478800000000000100000001000000000000001F
:10479800000000000100000001000000000000000F
:1047A80000000000010000000100000000000000FF
:1047B80000000000010000000100000000000000EF
:1047C80000000000010000000100000000000000DF
:1047D80000000000000000000100000000000000D0
:1047E80000000000010000000000000000000000C0
:1047F80000000000000000000000000001000000B0
:10480800010000000000000000000000000000009F
:10481800010000000100000000000000000000008E
:10482800000000000000000001000000010000007E
:10483800010000000100000000000000000000006E
:10484800000000000000000001000000010000005E
:10485800010000000100000000000000010000004D
:10486800010000000000000001000000010000003D
:10487800010000000100000000000000010000002D
:10488800010000000000000001000000010000001D
:10489800010000000100000000000000010000000D
:1048A80001000000000000000100000001000000FD
:1048B80001000000010000000000000001000000ED
:1048C80001000000000000000100000001000000DD
:1048D80001000000010000000100000000000000CD
:1048E80000000000010000000100000001000000BD
:1048F80000000000010000000000000000000000AF
:10490800000000000000000001000000000000009E
:10491800000000000100000001000000000000008D
:10492800000000000100000001000000000000007D
:10493800000000000100000001000000000000006D
:10494800000000000100000001000000000000005D
:10495800000000000000000001000000000000004E
:10496800000000000100000000000000000000003E
:10497800000000000000000000000000010000002E
:10498800010000000000000000000000000000001E
:10499800000000000000000001000000000000000E
:1049A80000000000010000000000000000000000FE
:1049B80000000000010000000100000000000000ED
:1049C80000000000010000000100000000000000DD
:1049D80000000000010000000100000000000000CD
:1049E80000000000010000000100000000000000BD
:1049F80000000000010000000100000000000000AD
:104A0800000000000100000001000000000000009C
:104A1800000000000100000001000000000000008C
:104A2800000000000100000001000000000000007C
:104A3800000000000100000001000000000000006C
:104A4800000000000100000001000000000000005C
:104A5800000000000100000001000000000000004C
:104A6800000000000100000001000000000000003C
:104A7800000000000000000001000000000000002D
:104A8800000000000100000000000000000000001D
:104A9800000000000000000000000000010000000D
:104AA80001000000000000000000000000000000FD
:104AB80000000000000000000000000001000000ED
:104AC80001000000000000000000000000000000DD
:104AD80000000000000000000000000001000000CD
:104AE80001000000000000000000000000000000BD
:104AF80000000000000000000000000001000000AD
:104B0800010000000000000000000000000000009C
:104B1800000000000100000001000000010000008A
:104B2800010000000100000001000000000000007A
:104B3800000000000000000000000000000000006D
:104B4800000000000100000001000000000000005B
:104B5800000000000000000000000000000000004D
:104B6800000000000100000000000000000000003C
:104B7800000000000000000000000000000000002D
:104B8800010000000000000000000000000000001C
:104B9800000000000000000000000000010000000C
:104BA80000000000000000000000000000000000FD
:104BB80000000000000000000100000000000000EC
:104BC80000000000000000000000000000000000DD
:104BD80000000000010000000100000000000000CB
:104BE80000000000000000000000000000000000BD
:104BF80000000000010000000100000001000000AA
:104C08000100000001000000010000000000000099
:104C18000000000001000000020000000300000086
:104C28000400000005000000060000000700000066
:104C380002030405060708090A0B0C0D0E0F1010D5
:104C48000000000000000000010203040607080934
:044C5800310100081E
:044C5C000D0100083E
:0C4C60000024F40010000000010000001F
:04000005080011A13D
:00000001FF
